{
  "_format": "hh-sol-artifact-1",
  "contractName": "MotorbikeNFT",
  "sourceName": "contracts/MotorbikeNFT.sol",
  "abi": [
    {
      "inputs": [],
      "stateMutability": "nonpayable",
      "type": "constructor"
    },
    {
      "inputs": [
        {
          "internalType": "address",
          "name": "sender",
          "type": "address"
        },
        {
          "internalType": "uint256",
          "name": "tokenId",
          "type": "uint256"
        },
        {
          "internalType": "address",
          "name": "owner",
          "type": "address"
        }
      ],
      "name": "ERC721IncorrectOwner",
      "type": "error"
    },
    {
      "inputs": [
        {
          "internalType": "address",
          "name": "operator",
          "type": "address"
        },
        {
          "internalType": "uint256",
          "name": "tokenId",
          "type": "uint256"
        }
      ],
      "name": "ERC721InsufficientApproval",
      "type": "error"
    },
    {
      "inputs": [
        {
          "internalType": "address",
          "name": "approver",
          "type": "address"
        }
      ],
      "name": "ERC721InvalidApprover",
      "type": "error"
    },
    {
      "inputs": [
        {
          "internalType": "address",
          "name": "operator",
          "type": "address"
        }
      ],
      "name": "ERC721InvalidOperator",
      "type": "error"
    },
    {
      "inputs": [
        {
          "internalType": "address",
          "name": "owner",
          "type": "address"
        }
      ],
      "name": "ERC721InvalidOwner",
      "type": "error"
    },
    {
      "inputs": [
        {
          "internalType": "address",
          "name": "receiver",
          "type": "address"
        }
      ],
      "name": "ERC721InvalidReceiver",
      "type": "error"
    },
    {
      "inputs": [
        {
          "internalType": "address",
          "name": "sender",
          "type": "address"
        }
      ],
      "name": "ERC721InvalidSender",
      "type": "error"
    },
    {
      "inputs": [
        {
          "internalType": "uint256",
          "name": "tokenId",
          "type": "uint256"
        }
      ],
      "name": "ERC721NonexistentToken",
      "type": "error"
    },
    {
      "inputs": [
        {
          "internalType": "address",
          "name": "owner",
          "type": "address"
        }
      ],
      "name": "OwnableInvalidOwner",
      "type": "error"
    },
    {
      "inputs": [
        {
          "internalType": "address",
          "name": "account",
          "type": "address"
        }
      ],
      "name": "OwnableUnauthorizedAccount",
      "type": "error"
    },
    {
      "anonymous": false,
      "inputs": [
        {
          "indexed": true,
          "internalType": "address",
          "name": "owner",
          "type": "address"
        },
        {
          "indexed": true,
          "internalType": "address",
          "name": "approved",
          "type": "address"
        },
        {
          "indexed": true,
          "internalType": "uint256",
          "name": "tokenId",
          "type": "uint256"
        }
      ],
      "name": "Approval",
      "type": "event"
    },
    {
      "anonymous": false,
      "inputs": [
        {
          "indexed": true,
          "internalType": "address",
          "name": "owner",
          "type": "address"
        },
        {
          "indexed": true,
          "internalType": "address",
          "name": "operator",
          "type": "address"
        },
        {
          "indexed": false,
          "internalType": "bool",
          "name": "approved",
          "type": "bool"
        }
      ],
      "name": "ApprovalForAll",
      "type": "event"
    },
    {
      "anonymous": false,
      "inputs": [
        {
          "indexed": true,
          "internalType": "uint256",
          "name": "tokenId",
          "type": "uint256"
        },
        {
          "indexed": false,
          "internalType": "string",
          "name": "model",
          "type": "string"
        },
        {
          "indexed": false,
          "internalType": "string",
          "name": "color",
          "type": "string"
        },
        {
          "indexed": false,
          "internalType": "uint256",
          "name": "year",
          "type": "uint256"
        }
      ],
      "name": "MotorbikeUpdated",
      "type": "event"
    },
    {
      "anonymous": false,
      "inputs": [
        {
          "indexed": true,
          "internalType": "address",
          "name": "previousOwner",
          "type": "address"
        },
        {
          "indexed": true,
          "internalType": "address",
          "name": "newOwner",
          "type": "address"
        }
      ],
      "name": "OwnershipTransferred",
      "type": "event"
    },
    {
      "anonymous": false,
      "inputs": [
        {
          "indexed": true,
          "internalType": "uint256",
          "name": "reportId",
          "type": "uint256"
        },
        {
          "indexed": true,
          "internalType": "uint256",
          "name": "tokenId",
          "type": "uint256"
        },
        {
          "indexed": false,
          "internalType": "address",
          "name": "resolver",
          "type": "address"
        },
        {
          "indexed": false,
          "internalType": "bool",
          "name": "unlocked",
          "type": "bool"
        },
        {
          "indexed": false,
          "internalType": "string",
          "name": "adminNote",
          "type": "string"
        }
      ],
      "name": "ReportResolved",
      "type": "event"
    },
    {
      "anonymous": false,
      "inputs": [
        {
          "indexed": true,
          "internalType": "uint256",
          "name": "reportId",
          "type": "uint256"
        },
        {
          "indexed": true,
          "internalType": "uint256",
          "name": "tokenId",
          "type": "uint256"
        },
        {
          "indexed": true,
          "internalType": "address",
          "name": "reporter",
          "type": "address"
        },
        {
          "indexed": false,
          "internalType": "string",
          "name": "reason",
          "type": "string"
        }
      ],
      "name": "ReportSubmitted",
      "type": "event"
    },
    {
      "anonymous": false,
      "inputs": [
        {
          "indexed": true,
          "internalType": "uint256",
          "name": "tokenId",
          "type": "uint256"
        },
        {
          "indexed": false,
          "internalType": "bool",
          "name": "locked",
          "type": "bool"
        },
        {
          "indexed": false,
          "internalType": "string",
          "name": "reason",
          "type": "string"
        }
      ],
      "name": "TokenLockSet",
      "type": "event"
    },
    {
      "anonymous": false,
      "inputs": [
        {
          "indexed": true,
          "internalType": "address",
          "name": "from",
          "type": "address"
        },
        {
          "indexed": true,
          "internalType": "address",
          "name": "to",
          "type": "address"
        },
        {
          "indexed": true,
          "internalType": "uint256",
          "name": "tokenId",
          "type": "uint256"
        }
      ],
      "name": "Transfer",
      "type": "event"
    },
    {
      "anonymous": false,
      "inputs": [
        {
          "indexed": true,
          "internalType": "address",
          "name": "user",
          "type": "address"
        },
        {
          "indexed": false,
          "internalType": "bool",
          "name": "status",
          "type": "bool"
        }
      ],
      "name": "UserVerified",
      "type": "event"
    },
    {
      "inputs": [
        {
          "internalType": "address",
          "name": "to",
          "type": "address"
        },
        {
          "internalType": "uint256",
          "name": "tokenId",
          "type": "uint256"
        }
      ],
      "name": "approve",
      "outputs": [],
      "stateMutability": "nonpayable",
      "type": "function"
    },
    {
      "inputs": [
        {
          "internalType": "address",
          "name": "owner",
          "type": "address"
        }
      ],
      "name": "balanceOf",
      "outputs": [
        {
          "internalType": "uint256",
          "name": "",
          "type": "uint256"
        }
      ],
      "stateMutability": "view",
      "type": "function"
    },
    {
      "inputs": [
        {
          "internalType": "bytes32",
          "name": "",
          "type": "bytes32"
        }
      ],
      "name": "engineToTokenId",
      "outputs": [
        {
          "internalType": "uint256",
          "name": "",
          "type": "uint256"
        }
      ],
      "stateMutability": "view",
      "type": "function"
    },
    {
      "inputs": [
        {
          "internalType": "uint256",
          "name": "tokenId",
          "type": "uint256"
        }
      ],
      "name": "getApproved",
      "outputs": [
        {
          "internalType": "address",
          "name": "",
          "type": "address"
        }
      ],
      "stateMutability": "view",
      "type": "function"
    },
    {
      "inputs": [
        {
          "internalType": "uint256",
          "name": "tokenId",
          "type": "uint256"
        }
      ],
      "name": "getMotorbike",
      "outputs": [
        {
          "components": [
            {
              "internalType": "string",
              "name": "vin",
              "type": "string"
            },
            {
              "internalType": "string",
              "name": "engineNumber",
              "type": "string"
            },
            {
              "internalType": "string",
              "name": "model",
              "type": "string"
            },
            {
              "internalType": "string",
              "name": "color",
              "type": "string"
            },
            {
              "internalType": "uint256",
              "name": "year",
              "type": "uint256"
            }
          ],
          "internalType": "struct MotorbikeNFT.Motorbike",
          "name": "",
          "type": "tuple"
        }
      ],
      "stateMutability": "view",
      "type": "function"
    },
    {
      "inputs": [
        {
          "internalType": "uint256",
          "name": "reportId",
          "type": "uint256"
        }
      ],
      "name": "getReport",
      "outputs": [
        {
          "internalType": "uint256",
          "name": "id",
          "type": "uint256"
        },
        {
          "internalType": "uint256",
          "name": "tokenId",
          "type": "uint256"
        },
        {
          "internalType": "address",
          "name": "reporter",
          "type": "address"
        },
        {
          "internalType": "string",
          "name": "reason",
          "type": "string"
        },
        {
          "internalType": "uint256",
          "name": "timestamp",
          "type": "uint256"
        },
        {
          "internalType": "bool",
          "name": "resolved",
          "type": "bool"
        },
        {
          "internalType": "address",
          "name": "resolver",
          "type": "address"
        },
        {
          "internalType": "bool",
          "name": "unlocked",
          "type": "bool"
        },
        {
          "internalType": "string",
          "name": "adminNote",
          "type": "string"
        }
      ],
      "stateMutability": "view",
      "type": "function"
    },
    {
      "inputs": [
        {
          "internalType": "uint256",
          "name": "tokenId",
          "type": "uint256"
        }
      ],
      "name": "getTokenReportIds",
      "outputs": [
        {
          "internalType": "uint256[]",
          "name": "",
          "type": "uint256[]"
        }
      ],
      "stateMutability": "view",
      "type": "function"
    },
    {
      "inputs": [
        {
          "internalType": "address",
          "name": "owner",
          "type": "address"
        },
        {
          "internalType": "address",
          "name": "operator",
          "type": "address"
        }
      ],
      "name": "isApprovedForAll",
      "outputs": [
        {
          "internalType": "bool",
          "name": "",
          "type": "bool"
        }
      ],
      "stateMutability": "view",
      "type": "function"
    },
    {
      "inputs": [
        {
          "internalType": "string",
          "name": "engineNumber",
          "type": "string"
        }
      ],
      "name": "isEngineNumberUsed",
      "outputs": [
        {
          "internalType": "bool",
          "name": "",
          "type": "bool"
        }
      ],
      "stateMutability": "view",
      "type": "function"
    },
    {
      "inputs": [
        {
          "internalType": "address",
          "name": "",
          "type": "address"
        }
      ],
      "name": "isKycVerified",
      "outputs": [
        {
          "internalType": "bool",
          "name": "",
          "type": "bool"
        }
      ],
      "stateMutability": "view",
      "type": "function"
    },
    {
      "inputs": [
        {
          "internalType": "string",
          "name": "vin",
          "type": "string"
        }
      ],
      "name": "isVinUsed",
      "outputs": [
        {
          "internalType": "bool",
          "name": "",
          "type": "bool"
        }
      ],
      "stateMutability": "view",
      "type": "function"
    },
    {
      "inputs": [
        {
          "internalType": "uint256",
          "name": "",
          "type": "uint256"
        }
      ],
      "name": "lockReason",
      "outputs": [
        {
          "internalType": "string",
          "name": "",
          "type": "string"
        }
      ],
      "stateMutability": "view",
      "type": "function"
    },
    {
      "inputs": [
        {
          "internalType": "uint256",
          "name": "",
          "type": "uint256"
        }
      ],
      "name": "locked",
      "outputs": [
        {
          "internalType": "bool",
          "name": "",
          "type": "bool"
        }
      ],
      "stateMutability": "view",
      "type": "function"
    },
    {
      "inputs": [
        {
          "internalType": "address",
          "name": "to",
          "type": "address"
        },
        {
          "internalType": "string",
          "name": "vin",
          "type": "string"
        },
        {
          "internalType": "string",
          "name": "engineNumber",
          "type": "string"
        },
        {
          "internalType": "string",
          "name": "model",
          "type": "string"
        },
        {
          "internalType": "string",
          "name": "color",
          "type": "string"
        },
        {
          "internalType": "uint256",
          "name": "year",
          "type": "uint256"
        }
      ],
      "name": "mint",
      "outputs": [],
      "stateMutability": "nonpayable",
      "type": "function"
    },
    {
      "inputs": [
        {
          "internalType": "uint256",
          "name": "",
          "type": "uint256"
        }
      ],
      "name": "motorbikes",
      "outputs": [
        {
          "internalType": "string",
          "name": "vin",
          "type": "string"
        },
        {
          "internalType": "string",
          "name": "engineNumber",
          "type": "string"
        },
        {
          "internalType": "string",
          "name": "model",
          "type": "string"
        },
        {
          "internalType": "string",
          "name": "color",
          "type": "string"
        },
        {
          "internalType": "uint256",
          "name": "year",
          "type": "uint256"
        }
      ],
      "stateMutability": "view",
      "type": "function"
    },
    {
      "inputs": [],
      "name": "name",
      "outputs": [
        {
          "internalType": "string",
          "name": "",
          "type": "string"
        }
      ],
      "stateMutability": "view",
      "type": "function"
    },
    {
      "inputs": [],
      "name": "nextReportId",
      "outputs": [
        {
          "internalType": "uint256",
          "name": "",
          "type": "uint256"
        }
      ],
      "stateMutability": "view",
      "type": "function"
    },
    {
      "inputs": [],
      "name": "nextTokenId",
      "outputs": [
        {
          "internalType": "uint256",
          "name": "",
          "type": "uint256"
        }
      ],
      "stateMutability": "view",
      "type": "function"
    },
    {
      "inputs": [],
      "name": "owner",
      "outputs": [
        {
          "internalType": "address",
          "name": "",
          "type": "address"
        }
      ],
      "stateMutability": "view",
      "type": "function"
    },
    {
      "inputs": [
        {
          "internalType": "uint256",
          "name": "tokenId",
          "type": "uint256"
        }
      ],
      "name": "ownerOf",
      "outputs": [
        {
          "internalType": "address",
          "name": "",
          "type": "address"
        }
      ],
      "stateMutability": "view",
      "type": "function"
    },
    {
      "inputs": [],
      "name": "renounceOwnership",
      "outputs": [],
      "stateMutability": "nonpayable",
      "type": "function"
    },
    {
      "inputs": [
        {
          "internalType": "uint256",
          "name": "",
          "type": "uint256"
        }
      ],
      "name": "reports",
      "outputs": [
        {
          "internalType": "uint256",
          "name": "id",
          "type": "uint256"
        },
        {
          "internalType": "uint256",
          "name": "tokenId",
          "type": "uint256"
        },
        {
          "internalType": "address",
          "name": "reporter",
          "type": "address"
        },
        {
          "internalType": "string",
          "name": "reason",
          "type": "string"
        },
        {
          "internalType": "uint256",
          "name": "timestamp",
          "type": "uint256"
        },
        {
          "internalType": "bool",
          "name": "resolved",
          "type": "bool"
        },
        {
          "internalType": "address",
          "name": "resolver",
          "type": "address"
        },
        {
          "internalType": "bool",
          "name": "unlocked",
          "type": "bool"
        },
        {
          "internalType": "string",
          "name": "adminNote",
          "type": "string"
        }
      ],
      "stateMutability": "view",
      "type": "function"
    },
    {
      "inputs": [
        {
          "internalType": "uint256",
          "name": "reportId",
          "type": "uint256"
        },
        {
          "internalType": "bool",
          "name": "unlock",
          "type": "bool"
        },
        {
          "internalType": "string",
          "name": "adminNote",
          "type": "string"
        }
      ],
      "name": "resolveReport",
      "outputs": [],
      "stateMutability": "nonpayable",
      "type": "function"
    },
    {
      "inputs": [
        {
          "internalType": "address",
          "name": "from",
          "type": "address"
        },
        {
          "internalType": "address",
          "name": "to",
          "type": "address"
        },
        {
          "internalType": "uint256",
          "name": "tokenId",
          "type": "uint256"
        }
      ],
      "name": "safeTransferFrom",
      "outputs": [],
      "stateMutability": "nonpayable",
      "type": "function"
    },
    {
      "inputs": [
        {
          "internalType": "address",
          "name": "from",
          "type": "address"
        },
        {
          "internalType": "address",
          "name": "to",
          "type": "address"
        },
        {
          "internalType": "uint256",
          "name": "tokenId",
          "type": "uint256"
        },
        {
          "internalType": "bytes",
          "name": "data",
          "type": "bytes"
        }
      ],
      "name": "safeTransferFrom",
      "outputs": [],
      "stateMutability": "nonpayable",
      "type": "function"
    },
    {
      "inputs": [
        {
          "internalType": "address",
          "name": "operator",
          "type": "address"
        },
        {
          "internalType": "bool",
          "name": "approved",
          "type": "bool"
        }
      ],
      "name": "setApprovalForAll",
      "outputs": [],
      "stateMutability": "nonpayable",
      "type": "function"
    },
    {
      "inputs": [
        {
          "internalType": "uint256",
          "name": "tokenId",
          "type": "uint256"
        },
        {
          "internalType": "bool",
          "name": "isLocked",
          "type": "bool"
        },
        {
          "internalType": "string",
          "name": "reason",
          "type": "string"
        }
      ],
      "name": "setTokenLock",
      "outputs": [],
      "stateMutability": "nonpayable",
      "type": "function"
    },
    {
      "inputs": [
        {
          "internalType": "uint256",
          "name": "tokenId",
          "type": "uint256"
        },
        {
          "internalType": "string",
          "name": "reason",
          "type": "string"
        }
      ],
      "name": "submitReport",
      "outputs": [],
      "stateMutability": "nonpayable",
      "type": "function"
    },
    {
      "inputs": [
        {
          "internalType": "bytes4",
          "name": "interfaceId",
          "type": "bytes4"
        }
      ],
      "name": "supportsInterface",
      "outputs": [
        {
          "internalType": "bool",
          "name": "",
          "type": "bool"
        }
      ],
      "stateMutability": "view",
      "type": "function"
    },
    {
      "inputs": [],
      "name": "symbol",
      "outputs": [
        {
          "internalType": "string",
          "name": "",
          "type": "string"
        }
      ],
      "stateMutability": "view",
      "type": "function"
    },
    {
      "inputs": [
        {
          "internalType": "uint256",
          "name": "",
          "type": "uint256"
        },
        {
          "internalType": "uint256",
          "name": "",
          "type": "uint256"
        }
      ],
      "name": "tokenReportIds",
      "outputs": [
        {
          "internalType": "uint256",
          "name": "",
          "type": "uint256"
        }
      ],
      "stateMutability": "view",
      "type": "function"
    },
    {
      "inputs": [
        {
          "internalType": "uint256",
          "name": "tokenId",
          "type": "uint256"
        }
      ],
      "name": "tokenURI",
      "outputs": [
        {
          "internalType": "string",
          "name": "",
          "type": "string"
        }
      ],
      "stateMutability": "view",
      "type": "function"
    },
    {
      "inputs": [],
      "name": "totalSupply",
      "outputs": [
        {
          "internalType": "uint256",
          "name": "",
          "type": "uint256"
        }
      ],
      "stateMutability": "view",
      "type": "function"
    },
    {
      "inputs": [
        {
          "internalType": "address",
          "name": "from",
          "type": "address"
        },
        {
          "internalType": "address",
          "name": "to",
          "type": "address"
        },
        {
          "internalType": "uint256",
          "name": "tokenId",
          "type": "uint256"
        }
      ],
      "name": "transferFrom",
      "outputs": [],
      "stateMutability": "nonpayable",
      "type": "function"
    },
    {
      "inputs": [
        {
          "internalType": "address",
          "name": "newOwner",
          "type": "address"
        }
      ],
      "name": "transferOwnership",
      "outputs": [],
      "stateMutability": "nonpayable",
      "type": "function"
    },
    {
      "inputs": [
        {
          "internalType": "uint256",
          "name": "tokenId",
          "type": "uint256"
        },
        {
          "internalType": "string",
          "name": "model",
          "type": "string"
        },
        {
          "internalType": "string",
          "name": "color",
          "type": "string"
        },
        {
          "internalType": "uint256",
          "name": "year",
          "type": "uint256"
        }
      ],
      "name": "updateMotorbikeDetails",
      "outputs": [],
      "stateMutability": "nonpayable",
      "type": "function"
    },
    {
      "inputs": [
        {
          "internalType": "address",
          "name": "_user",
          "type": "address"
        },
        {
          "internalType": "bool",
          "name": "_status",
          "type": "bool"
        }
      ],
      "name": "verifyUser",
      "outputs": [],
      "stateMutability": "nonpayable",
      "type": "function"
    },
    {
      "inputs": [
        {
          "internalType": "bytes32",
          "name": "",
          "type": "bytes32"
        }
      ],
      "name": "vinToTokenId",
      "outputs": [
        {
          "internalType": "uint256",
          "name": "",
          "type": "uint256"
        }
      ],
      "stateMutability": "view",
      "type": "function"
    }
  ],
  "bytecode": "0x60806040523480156200001157600080fd5b50336040518060400160405280600c81526020016b135bdd1bdc989a5ad953919560a21b81525060405180604001604052806005815260200164135093919560da1b8152508160009081620000679190620001b1565b506001620000768282620001b1565b5050506001600160a01b038116620000a857604051631e4fbdf760e01b81526000600482015260240160405180910390fd5b620000b381620000ba565b506200027d565b600680546001600160a01b038381166001600160a01b0319831681179093556040519116919082907f8be0079c531659141344cd1fd0a4f28419497f9722a3daafe3b4186f6b6457e090600090a35050565b634e487b7160e01b600052604160045260246000fd5b600181811c908216806200013757607f821691505b6020821081036200015857634e487b7160e01b600052602260045260246000fd5b50919050565b601f821115620001ac57600081815260208120601f850160051c81016020861015620001875750805b601f850160051c820191505b81811015620001a85782815560010162000193565b5050505b505050565b81516001600160401b03811115620001cd57620001cd6200010c565b620001e581620001de845462000122565b846200015e565b602080601f8311600181146200021d5760008415620002045750858301515b600019600386901b1c1916600185901b178555620001a8565b600085815260208120601f198616915b828110156200024e578886015182559484019460019091019084016200022d565b50858210156200026d5787850151600019600388901b60f8161c191681555b5050505050600190811b01905550565b612e0b806200028d6000396000f3fe608060405234801561001057600080fd5b50600436106102325760003560e01c8063777b495811610130578063acbd857f116100b8578063c87b56dd1161007c578063c87b56dd14610528578063c942adf71461053b578063deb1aeaa1461054e578063e985e9c514610561578063f2fde38b1461057457600080fd5b8063acbd857f1461049c578063ad59eff3146104bf578063b45a3c0e146104df578063b88d4fde14610502578063baf283871461051557600080fd5b8063934eb414116100ff578063934eb4141461042157806395d89b41146104415780639b58c63614610449578063a09b5c1314610469578063a22cb4651461048957600080fd5b8063777b4958146103d75780637e7ed032146103ea5780638da5cb5b146103fd578063900304571461040e57600080fd5b806339a5e9f6116101be5780636352211e116101825780636352211e146103975780636e79bbf6146103aa57806370a08231146103b3578063715018a6146103c657806375794a3c146103ce57600080fd5b806339a5e9f61461032357806342842e0e1461033657806345ebfba1146103495780634e7f9b191461035c57806362f46d151461038457600080fd5b8063149c9db011610205578063149c9db0146102b457806318160ddd146102d85780631ad0ba0c146102ea5780631efc2dd7146102fd57806323b872dd1461031057600080fd5b806301ffc9a71461023757806306fdde031461025f578063081812fc14610274578063095ea7b31461029f575b600080fd5b61024a61024536600461231b565b610587565b60405190151581526020015b60405180910390f35b6102676105d9565b6040516102569190612388565b61028761028236600461239b565b61066b565b6040516001600160a01b039091168152602001610256565b6102b26102ad3660046123d0565b610694565b005b6102c76102c236600461239b565b6106a3565b6040516102569594939291906123fa565b600c545b604051908152602001610256565b6102b26102f83660046124b3565b6108f1565b61024a61030b3660046125b9565b610aad565b6102b261031e3660046125ee565b610af3565b6102b261033136600461262a565b610b7e565b6102b26103443660046125ee565b610c3a565b6102dc6103573660046126ac565b610c5a565b61036f61036a36600461239b565b610c8b565b604051610256999897969594939291906126ce565b6102b2610392366004612745565b610e28565b6102876103a536600461239b565b611048565b6102dc60105481565b6102dc6103c136600461280b565b611053565b6102b261109b565b6102dc600c5481565b6102b26103e53660046124b3565b6110af565b6102b26103f8366004612826565b611198565b6006546001600160a01b0316610287565b6102b261041c366004612859565b6111ff565b61043461042f36600461239b565b61149f565b60405161025691906128a5565b610267611501565b6102dc61045736600461239b565b600b6020526000908152604090205481565b61047c61047736600461239b565b611510565b60405161025691906128e9565b6102b2610497366004612826565b6117e4565b61024a6104aa36600461280b565b600f6020526000908152604090205460ff1681565b6102dc6104cd36600461239b565b600a6020526000908152604090205481565b61024a6104ed36600461239b565b600d6020526000908152604090205460ff1681565b6102b2610510366004612975565b6117ef565b61026761052336600461239b565b611807565b61026761053636600461239b565b6118a1565b61036f61054936600461239b565b611916565b61024a61055c3660046125b9565b611a8f565b61024a61056f3660046129f1565b611aa6565b6102b261058236600461280b565b611ad4565b60006001600160e01b031982166380ac58cd60e01b14806105b857506001600160e01b03198216635b5e139f60e01b145b806105d357506301ffc9a760e01b6001600160e01b03198316145b92915050565b6060600080546105e890612a1b565b80601f016020809104026020016040519081016040528092919081815260200182805461061490612a1b565b80156106615780601f1061063657610100808354040283529160200191610661565b820191906000526020600020905b81548152906001019060200180831161064457829003601f168201915b5050505050905090565b600061067682611b12565b506000828152600460205260409020546001600160a01b03166105d3565b61069f828233611b4b565b5050565b6007602052600090815260409020805481906106be90612a1b565b80601f01602080910402602001604051908101604052809291908181526020018280546106ea90612a1b565b80156107375780601f1061070c57610100808354040283529160200191610737565b820191906000526020600020905b81548152906001019060200180831161071a57829003601f168201915b50505050509080600101805461074c90612a1b565b80601f016020809104026020016040519081016040528092919081815260200182805461077890612a1b565b80156107c55780601f1061079a576101008083540402835291602001916107c5565b820191906000526020600020905b8154815290600101906020018083116107a857829003601f168201915b5050505050908060020180546107da90612a1b565b80601f016020809104026020016040519081016040528092919081815260200182805461080690612a1b565b80156108535780601f1061082857610100808354040283529160200191610853565b820191906000526020600020905b81548152906001019060200180831161083657829003601f168201915b50505050509080600301805461086890612a1b565b80601f016020809104026020016040519081016040528092919081815260200182805461089490612a1b565b80156108e15780601f106108b6576101008083540402835291602001916108e1565b820191906000526020600020905b8154815290600101906020018083116108c457829003601f168201915b5050505050908060040154905085565b6108f9611b58565b6000848152601160205260409020600581015460ff16156109545760405162461bcd60e51b815260206004820152601060248201526f105b1c9958591e481c995cdbdb1d995960821b60448201526064015b60405180910390fd5b60058101805460016001600160a81b03199091166101003302171760ff60a81b1916600160a81b8615150217905560068101610991838583612a9b565b508380156109b2575060018101546000908152600d602052604090205460ff165b15610a63576001810180546000908152600d60209081526040808320805460ff191690558051808301825283815293548352600e9091529020906109f69082612b5b565b5080600101547f91a9912fed89bd30033aa30be97f0493ac57d6c28b76a01c210eb37278420bf76000604051610a5a91151581526040602082018190526012908201527115539313d0d2d15117d09657d4915413d49560721b606082015260800190565b60405180910390a25b8060010154857ff4d0c370bc65d958196f8364271849962346d8911fa666ff1bf2bc69dfb81cab33878787604051610a9e9493929190612c44565b60405180910390a35050505050565b60006008600083604051602001610ac49190612c7b565b60408051601f198184030181529181528151602092830120835290820192909252016000205460ff1692915050565b6001600160a01b038216610b1d57604051633250574960e11b81526000600482015260240161094b565b6000610b2a838333611b85565b9050836001600160a01b0316816001600160a01b031614610b78576040516364283d7b60e01b81526001600160a01b038086166004830152602482018490528216604482015260640161094b565b50505050565b610b86611b58565b6000868152600260205260409020546001600160a01b0316610bba5760405162461bcd60e51b815260040161094b90612c97565b600086815260076020526040902060028101610bd7868883612a9b565b5060038101610be7848683612a9b565b50818160040181905550867f989cb7f586f7dc4784a41ffd618ef7d6f4ddfc1d4e7664e33da17cd6a0b151968787878787604051610c29959493929190612cc5565b60405180910390a250505050505050565b610c55838383604051806020016040528060008152506117ef565b505050565b60126020528160005260406000208181548110610c7657600080fd5b90600052602060002001600091509150505481565b6000818152601160205260408120805460018201546002830154600484015460058501546003860180548897889760609789978897889788978c976001600160a01b039485169491939260ff8082169361010083041692600160a81b909204169060068a01908690610cfc90612a1b565b80601f0160208091040260200160405190810160405280929190818152602001828054610d2890612a1b565b8015610d755780601f10610d4a57610100808354040283529160200191610d75565b820191906000526020600020905b815481529060010190602001808311610d5857829003601f168201915b50505050509550808054610d8890612a1b565b80601f0160208091040260200160405190810160405280929190818152602001828054610db490612a1b565b8015610e015780601f10610dd657610100808354040283529160200191610e01565b820191906000526020600020905b815481529060010190602001808311610de457829003601f168201915b50505050509050995099509950995099509950995099509950509193959799909294969850565b610e30611b58565b600085604051602001610e439190612c7b565b604051602081830303815290604052805190602001209050600085604051602001610e6e9190612c7b565b60408051601f1981840301815291815281516020928301206000858152600890935291205490915060ff1615610edb5760405162461bcd60e51b815260206004820152601260248201527156494e20616c72656164792065786973747360701b604482015260640161094b565b60008181526009602052604090205460ff1615610f3a5760405162461bcd60e51b815260206004820152601c60248201527f456e67696e65206e756d62657220616c72656164792065786973747300000000604482015260640161094b565b6040805160a08101825288815260208082018990528183018890526060820187905260808201869052600c54600090815260079091529190912081518190610f829082612b5b565b5060208201516001820190610f979082612b5b565b5060408201516002820190610fac9082612b5b565b5060608201516003820190610fc19082612b5b565b5060808201518160040155905050610fdb88600c54611c1e565b60008281526008602090815260408083208054600160ff1991821681179092558585526009845282852080549091169091179055600c8054868552600a8452828520819055858552600b909352908320829055909161103983612cff565b91905055505050505050505050565b60006105d382611b12565b60006001600160a01b03821661107f576040516322718ad960e21b81526000600482015260240161094b565b506001600160a01b031660009081526003602052604090205490565b6110a3611b58565b6110ad6000611c38565b565b6110b7611b58565b6000848152600260205260409020546001600160a01b03166110eb5760405162461bcd60e51b815260040161094b90612c97565b6000848152600d60205260409020805460ff1916841580159190911790915561112d576000848152600e60205260409020611127828483612a9b565b50611156565b60408051602080820183526000808352878152600e90915291909120906111549082612b5b565b505b837f91a9912fed89bd30033aa30be97f0493ac57d6c28b76a01c210eb37278420bf784848460405161118a93929190612d26565b60405180910390a250505050565b6111a0611b58565b6001600160a01b0382166000818152600f6020908152604091829020805460ff191685151590811790915591519182527f34736af44d2b91cd43fa896d4cfe0861ec1e6b4538583d385fc671639e9153b2910160405180910390a25050565b6000838152600260205260409020546001600160a01b03166112335760405162461bcd60e51b815260040161094b90612c97565b6000838152600d602052604090205460ff166112845760405162461bcd60e51b815260206004820152601060248201526f151bdad95b881b9bdd081b1bd8dad95960821b604482015260640161094b565b806112c35760405162461bcd60e51b815260206004820152600f60248201526e1499585cdbdb881c995c5d5a5c9959608a1b604482015260640161094b565b60108054600091826112d483612cff565b919050559050604051806101200160405280828152602001858152602001336001600160a01b0316815260200184848080601f016020809104026020016040519081016040528093929190818152602001838380828437600092018290525093855250504260208085019190915260408085018490526060808601859052608086018590528151808401835285815260a090960195909552868452601182529283902085518155908501516001820155918401516002830180546001600160a01b0319166001600160a01b03909216919091179055509082015160038201906113bd9082612b5b565b506080820151600482015560a082015160058201805460c085015160e08601516001600160a81b0319909216931515610100600160a81b031916939093176101006001600160a01b0390941684021760ff60a81b1916600160a81b9115159190910217905582015160068201906114349082612b5b565b505050600084815260126020908152604080832080546001810182559084529190922001829055513390859083907fd8d70bbc43d95fae4322943d483f06e8fcc2353f5c151a45fe7e6b4cab35400b906114919088908890612d42565b60405180910390a450505050565b6000818152601260209081526040918290208054835181840281018401909452808452606093928301828280156114f557602002820191906000526020600020905b8154815260200190600101908083116114e1575b50505050509050919050565b6060600180546105e890612a1b565b6115426040518060a0016040528060608152602001606081526020016060815260200160608152602001600081525090565b600061154d83611048565b6001600160a01b0316036115735760405162461bcd60e51b815260040161094b90612c97565b60008281526007602052604090819020815160a0810190925280548290829061159b90612a1b565b80601f01602080910402602001604051908101604052809291908181526020018280546115c790612a1b565b80156116145780601f106115e957610100808354040283529160200191611614565b820191906000526020600020905b8154815290600101906020018083116115f757829003601f168201915b5050505050815260200160018201805461162d90612a1b565b80601f016020809104026020016040519081016040528092919081815260200182805461165990612a1b565b80156116a65780601f1061167b576101008083540402835291602001916116a6565b820191906000526020600020905b81548152906001019060200180831161168957829003601f168201915b505050505081526020016002820180546116bf90612a1b565b80601f01602080910402602001604051908101604052809291908181526020018280546116eb90612a1b565b80156117385780601f1061170d57610100808354040283529160200191611738565b820191906000526020600020905b81548152906001019060200180831161171b57829003601f168201915b5050505050815260200160038201805461175190612a1b565b80601f016020809104026020016040519081016040528092919081815260200182805461177d90612a1b565b80156117ca5780601f1061179f576101008083540402835291602001916117ca565b820191906000526020600020905b8154815290600101906020018083116117ad57829003601f168201915b505050505081526020016004820154815250509050919050565b61069f338383611c8a565b6117fa848484610af3565b610b783385858585611d29565b600e602052600090815260409020805461182090612a1b565b80601f016020809104026020016040519081016040528092919081815260200182805461184c90612a1b565b80156118995780601f1061186e57610100808354040283529160200191611899565b820191906000526020600020905b81548152906001019060200180831161187c57829003601f168201915b505050505081565b60606118ac82611b12565b5060006118c460408051602081019091526000815290565b905060008151116118e4576040518060200160405280600081525061190f565b806118ee84611e54565b6040516020016118ff929190612d56565b6040516020818303038152906040525b9392505050565b6011602052600090815260409020805460018201546002830154600384018054939492936001600160a01b03909216929161195090612a1b565b80601f016020809104026020016040519081016040528092919081815260200182805461197c90612a1b565b80156119c95780601f1061199e576101008083540402835291602001916119c9565b820191906000526020600020905b8154815290600101906020018083116119ac57829003601f168201915b50505050600483015460058401546006850180549495929460ff808416955061010084046001600160a01b031694600160a81b90940416929190611a0c90612a1b565b80601f0160208091040260200160405190810160405280929190818152602001828054611a3890612a1b565b8015611a855780601f10611a5a57610100808354040283529160200191611a85565b820191906000526020600020905b815481529060010190602001808311611a6857829003601f168201915b5050505050905089565b60006009600083604051602001610ac49190612c7b565b6001600160a01b03918216600090815260056020908152604080832093909416825291909152205460ff1690565b611adc611b58565b6001600160a01b038116611b0657604051631e4fbdf760e01b81526000600482015260240161094b565b611b0f81611c38565b50565b6000818152600260205260408120546001600160a01b0316806105d357604051637e27328960e01b81526004810184905260240161094b565b610c558383836001611ee7565b6006546001600160a01b031633146110ad5760405163118cdaa760e01b815233600482015260240161094b565b6000828152600260205260408120546001600160a01b03168015801590611bb457506001600160a01b03851615155b15611c0a576000848152600d602052604090205460ff1615611c0a5760405162461bcd60e51b815260206004820152600f60248201526e151bdad95b881a5cc81b1bd8dad959608a1b604482015260640161094b565b611c15858585611fed565b95945050505050565b61069f8282604051806020016040528060008152506120e6565b600680546001600160a01b038381166001600160a01b0319831681179093556040519116919082907f8be0079c531659141344cd1fd0a4f28419497f9722a3daafe3b4186f6b6457e090600090a35050565b6001600160a01b038216611cbc57604051630b61174360e31b81526001600160a01b038316600482015260240161094b565b6001600160a01b03838116600081815260056020908152604080832094871680845294825291829020805460ff191686151590811790915591519182527f17307eab39ab6107e8899845ad3d59bd9653f200f220920489ca2b5937696c31910160405180910390a3505050565b6001600160a01b0383163b15611e4d57604051630a85bd0160e11b81526001600160a01b0384169063150b7a0290611d6b908890889087908790600401612d85565b6020604051808303816000875af1925050508015611da6575060408051601f3d908101601f19168201909252611da391810190612db8565b60015b611e0f573d808015611dd4576040519150601f19603f3d011682016040523d82523d6000602084013e611dd9565b606091505b508051600003611e0757604051633250574960e11b81526001600160a01b038516600482015260240161094b565b805160208201fd5b6001600160e01b03198116630a85bd0160e11b14611e4b57604051633250574960e11b81526001600160a01b038516600482015260240161094b565b505b5050505050565b60606000611e61836120fe565b600101905060008167ffffffffffffffff811115611e8157611e8161250d565b6040519080825280601f01601f191660200182016040528015611eab576020820181803683370190505b5090508181016020015b600019016f181899199a1a9b1b9c1cb0b131b232b360811b600a86061a8153600a8504945084611eb557509392505050565b8080611efb57506001600160a01b03821615155b15611fbd576000611f0b84611b12565b90506001600160a01b03831615801590611f375750826001600160a01b0316816001600160a01b031614155b8015611f4a5750611f488184611aa6565b155b15611f735760405163a9fbf51f60e01b81526001600160a01b038416600482015260240161094b565b8115611fbb5783856001600160a01b0316826001600160a01b03167f8c5be1e5ebec7d5bd14f71427d1e84f3dd0314c0f7b2291e5b200ac8c7c3b92560405160405180910390a45b505b5050600090815260046020526040902080546001600160a01b0319166001600160a01b0392909216919091179055565b6000828152600260205260408120546001600160a01b039081169083161561201a5761201a8184866121d6565b6001600160a01b0381161561205857612037600085600080611ee7565b6001600160a01b038116600090815260036020526040902080546000190190555b6001600160a01b03851615612087576001600160a01b0385166000908152600360205260409020805460010190555b60008481526002602052604080822080546001600160a01b0319166001600160a01b0389811691821790925591518793918516917fddf252ad1be2c89b69c2b068fc378daa952ba7f163c4a11628f55a4df523b3ef91a4949350505050565b6120f0838361223a565b610c55336000858585611d29565b60008072184f03e93ff9f4daa797ed6e38ed64bf6a1f0160401b831061213d5772184f03e93ff9f4daa797ed6e38ed64bf6a1f0160401b830492506040015b6d04ee2d6d415b85acef81000000008310612169576d04ee2d6d415b85acef8100000000830492506020015b662386f26fc10000831061218757662386f26fc10000830492506010015b6305f5e100831061219f576305f5e100830492506008015b61271083106121b357612710830492506004015b606483106121c5576064830492506002015b600a83106105d35760010192915050565b6121e183838361229f565b610c55576001600160a01b03831661220f57604051637e27328960e01b81526004810182905260240161094b565b60405163177e802f60e01b81526001600160a01b03831660048201526024810182905260440161094b565b6001600160a01b03821661226457604051633250574960e11b81526000600482015260240161094b565b600061227283836000611b85565b90506001600160a01b03811615610c55576040516339e3563760e11b81526000600482015260240161094b565b60006001600160a01b038316158015906122fd5750826001600160a01b0316846001600160a01b031614806122d957506122d98484611aa6565b806122fd57506000828152600460205260409020546001600160a01b038481169116145b949350505050565b6001600160e01b031981168114611b0f57600080fd5b60006020828403121561232d57600080fd5b813561190f81612305565b60005b8381101561235357818101518382015260200161233b565b50506000910152565b60008151808452612374816020860160208601612338565b601f01601f19169290920160200192915050565b60208152600061190f602083018461235c565b6000602082840312156123ad57600080fd5b5035919050565b80356001600160a01b03811681146123cb57600080fd5b919050565b600080604083850312156123e357600080fd5b6123ec836123b4565b946020939093013593505050565b60a08152600061240d60a083018861235c565b828103602084015261241f818861235c565b90508281036040840152612433818761235c565b90508281036060840152612447818661235c565b9150508260808301529695505050505050565b803580151581146123cb57600080fd5b60008083601f84011261247c57600080fd5b50813567ffffffffffffffff81111561249457600080fd5b6020830191508360208285010111156124ac57600080fd5b9250929050565b600080600080606085870312156124c957600080fd5b843593506124d96020860161245a565b9250604085013567ffffffffffffffff8111156124f557600080fd5b6125018782880161246a565b95989497509550505050565b634e487b7160e01b600052604160045260246000fd5b600067ffffffffffffffff8084111561253e5761253e61250d565b604051601f8501601f19908116603f011681019082821181831017156125665761256661250d565b8160405280935085815286868601111561257f57600080fd5b858560208301376000602087830101525050509392505050565b600082601f8301126125aa57600080fd5b61190f83833560208501612523565b6000602082840312156125cb57600080fd5b813567ffffffffffffffff8111156125e257600080fd5b6122fd84828501612599565b60008060006060848603121561260357600080fd5b61260c846123b4565b925061261a602085016123b4565b9150604084013590509250925092565b6000806000806000806080878903121561264357600080fd5b86359550602087013567ffffffffffffffff8082111561266257600080fd5b61266e8a838b0161246a565b9097509550604089013591508082111561268757600080fd5b5061269489828a0161246a565b979a9699509497949695606090950135949350505050565b600080604083850312156126bf57600080fd5b50508035926020909101359150565b898152602081018990526001600160a01b038881166040830152610120606083018190526000916127018483018b61235c565b915088608085015287151560a085015280871660c08501525084151560e0840152828103610100840152612735818561235c565b9c9b505050505050505050505050565b60008060008060008060c0878903121561275e57600080fd5b612767876123b4565b9550602087013567ffffffffffffffff8082111561278457600080fd5b6127908a838b01612599565b965060408901359150808211156127a657600080fd5b6127b28a838b01612599565b955060608901359150808211156127c857600080fd5b6127d48a838b01612599565b945060808901359150808211156127ea57600080fd5b506127f789828a01612599565b92505060a087013590509295509295509295565b60006020828403121561281d57600080fd5b61190f826123b4565b6000806040838503121561283957600080fd5b612842836123b4565b91506128506020840161245a565b90509250929050565b60008060006040848603121561286e57600080fd5b83359250602084013567ffffffffffffffff81111561288c57600080fd5b6128988682870161246a565b9497909650939450505050565b6020808252825182820181905260009190848201906040850190845b818110156128dd578351835292840192918401916001016128c1565b50909695505050505050565b602081526000825160a0602084015261290560c084018261235c565b90506020840151601f1980858403016040860152612923838361235c565b92506040860151915080858403016060860152612940838361235c565b925060608601519150808584030160808601525061295e828261235c565b915050608084015160a08401528091505092915050565b6000806000806080858703121561298b57600080fd5b612994856123b4565b93506129a2602086016123b4565b925060408501359150606085013567ffffffffffffffff8111156129c557600080fd5b8501601f810187136129d657600080fd5b6129e587823560208401612523565b91505092959194509250565b60008060408385031215612a0457600080fd5b612a0d836123b4565b9150612850602084016123b4565b600181811c90821680612a2f57607f821691505b602082108103612a4f57634e487b7160e01b600052602260045260246000fd5b50919050565b601f821115610c5557600081815260208120601f850160051c81016020861015612a7c5750805b601f850160051c820191505b81811015611e4b57828155600101612a88565b67ffffffffffffffff831115612ab357612ab361250d565b612ac783612ac18354612a1b565b83612a55565b6000601f841160018114612afb5760008515612ae35750838201355b600019600387901b1c1916600186901b178355611e4d565b600083815260209020601f19861690835b82811015612b2c5786850135825560209485019460019092019101612b0c565b5086821015612b495760001960f88860031b161c19848701351681555b505060018560011b0183555050505050565b815167ffffffffffffffff811115612b7557612b7561250d565b612b8981612b838454612a1b565b84612a55565b602080601f831160018114612bbe5760008415612ba65750858301515b600019600386901b1c1916600185901b178555611e4b565b600085815260208120601f198616915b82811015612bed57888601518255948401946001909101908401612bce565b5085821015612c0b5787850151600019600388901b60f8161c191681555b5050505050600190811b01905550565b81835281816020850137506000828201602090810191909152601f909101601f19169091010190565b6001600160a01b03851681528315156020820152606060408201819052600090612c719083018486612c1b565b9695505050505050565b60008251612c8d818460208701612338565b9190910192915050565b602080825260149082015273151bdad95b88191bd95cc81b9bdd08195e1a5cdd60621b604082015260600190565b606081526000612cd9606083018789612c1b565b8281036020840152612cec818688612c1b565b9150508260408301529695505050505050565b600060018201612d1f57634e487b7160e01b600052601160045260246000fd5b5060010190565b8315158152604060208201526000611c15604083018486612c1b565b6020815260006122fd602083018486612c1b565b60008351612d68818460208801612338565b835190830190612d7c818360208801612338565b01949350505050565b6001600160a01b0385811682528416602082015260408101839052608060608201819052600090612c719083018461235c565b600060208284031215612dca57600080fd5b815161190f8161230556fea2646970667358221220323131082054cea6d6916ca38f37c794c933ed5215351b87e282cbc0e6daa25764736f6c63430008140033",
  "linkReferences": {},
  "deployedLinkReferences": {}
}