{
  "_format": "hh-sol-artifact-1",
  "contractName": "MotorbikeNFT",
  "sourceName": "contracts/MotorbikeNFT.sol",
  "abi": [
    {
      "inputs": [],
      "stateMutability": "nonpayable",
      "type": "constructor"
    },
    {
      "inputs": [
        {
          "internalType": "address",
          "name": "sender",
          "type": "address"
        },
        {
          "internalType": "uint256",
          "name": "tokenId",
          "type": "uint256"
        },
        {
          "internalType": "address",
          "name": "owner",
          "type": "address"
        }
      ],
      "name": "ERC721IncorrectOwner",
      "type": "error"
    },
    {
      "inputs": [
        {
          "internalType": "address",
          "name": "operator",
          "type": "address"
        },
        {
          "internalType": "uint256",
          "name": "tokenId",
          "type": "uint256"
        }
      ],
      "name": "ERC721InsufficientApproval",
      "type": "error"
    },
    {
      "inputs": [
        {
          "internalType": "address",
          "name": "approver",
          "type": "address"
        }
      ],
      "name": "ERC721InvalidApprover",
      "type": "error"
    },
    {
      "inputs": [
        {
          "internalType": "address",
          "name": "operator",
          "type": "address"
        }
      ],
      "name": "ERC721InvalidOperator",
      "type": "error"
    },
    {
      "inputs": [
        {
          "internalType": "address",
          "name": "owner",
          "type": "address"
        }
      ],
      "name": "ERC721InvalidOwner",
      "type": "error"
    },
    {
      "inputs": [
        {
          "internalType": "address",
          "name": "receiver",
          "type": "address"
        }
      ],
      "name": "ERC721InvalidReceiver",
      "type": "error"
    },
    {
      "inputs": [
        {
          "internalType": "address",
          "name": "sender",
          "type": "address"
        }
      ],
      "name": "ERC721InvalidSender",
      "type": "error"
    },
    {
      "inputs": [
        {
          "internalType": "uint256",
          "name": "tokenId",
          "type": "uint256"
        }
      ],
      "name": "ERC721NonexistentToken",
      "type": "error"
    },
    {
      "inputs": [
        {
          "internalType": "address",
          "name": "owner",
          "type": "address"
        }
      ],
      "name": "OwnableInvalidOwner",
      "type": "error"
    },
    {
      "inputs": [
        {
          "internalType": "address",
          "name": "account",
          "type": "address"
        }
      ],
      "name": "OwnableUnauthorizedAccount",
      "type": "error"
    },
    {
      "anonymous": false,
      "inputs": [
        {
          "indexed": true,
          "internalType": "address",
          "name": "owner",
          "type": "address"
        },
        {
          "indexed": true,
          "internalType": "address",
          "name": "approved",
          "type": "address"
        },
        {
          "indexed": true,
          "internalType": "uint256",
          "name": "tokenId",
          "type": "uint256"
        }
      ],
      "name": "Approval",
      "type": "event"
    },
    {
      "anonymous": false,
      "inputs": [
        {
          "indexed": true,
          "internalType": "address",
          "name": "owner",
          "type": "address"
        },
        {
          "indexed": true,
          "internalType": "address",
          "name": "operator",
          "type": "address"
        },
        {
          "indexed": false,
          "internalType": "bool",
          "name": "approved",
          "type": "bool"
        }
      ],
      "name": "ApprovalForAll",
      "type": "event"
    },
    {
      "anonymous": false,
      "inputs": [
        {
          "indexed": true,
          "internalType": "uint256",
          "name": "tokenId",
          "type": "uint256"
        },
        {
          "indexed": false,
          "internalType": "string",
          "name": "model",
          "type": "string"
        },
        {
          "indexed": false,
          "internalType": "string",
          "name": "color",
          "type": "string"
        },
        {
          "indexed": false,
          "internalType": "uint256",
          "name": "year",
          "type": "uint256"
        }
      ],
      "name": "MotorbikeUpdated",
      "type": "event"
    },
    {
      "anonymous": false,
      "inputs": [
        {
          "indexed": true,
          "internalType": "address",
          "name": "previousOwner",
          "type": "address"
        },
        {
          "indexed": true,
          "internalType": "address",
          "name": "newOwner",
          "type": "address"
        }
      ],
      "name": "OwnershipTransferred",
      "type": "event"
    },
    {
      "anonymous": false,
      "inputs": [
        {
          "indexed": true,
          "internalType": "uint256",
          "name": "reportId",
          "type": "uint256"
        },
        {
          "indexed": true,
          "internalType": "uint256",
          "name": "tokenId",
          "type": "uint256"
        },
        {
          "indexed": false,
          "internalType": "address",
          "name": "resolver",
          "type": "address"
        },
        {
          "indexed": false,
          "internalType": "bool",
          "name": "unlocked",
          "type": "bool"
        },
        {
          "indexed": false,
          "internalType": "string",
          "name": "adminNote",
          "type": "string"
        }
      ],
      "name": "ReportResolved",
      "type": "event"
    },
    {
      "anonymous": false,
      "inputs": [
        {
          "indexed": true,
          "internalType": "uint256",
          "name": "reportId",
          "type": "uint256"
        },
        {
          "indexed": true,
          "internalType": "uint256",
          "name": "tokenId",
          "type": "uint256"
        },
        {
          "indexed": true,
          "internalType": "address",
          "name": "reporter",
          "type": "address"
        },
        {
          "indexed": false,
          "internalType": "string",
          "name": "reason",
          "type": "string"
        }
      ],
      "name": "ReportSubmitted",
      "type": "event"
    },
    {
      "anonymous": false,
      "inputs": [
        {
          "indexed": true,
          "internalType": "uint256",
          "name": "tokenId",
          "type": "uint256"
        },
        {
          "indexed": false,
          "internalType": "bool",
          "name": "locked",
          "type": "bool"
        },
        {
          "indexed": false,
          "internalType": "string",
          "name": "reason",
          "type": "string"
        }
      ],
      "name": "TokenLockSet",
      "type": "event"
    },
    {
      "anonymous": false,
      "inputs": [
        {
          "indexed": true,
          "internalType": "address",
          "name": "from",
          "type": "address"
        },
        {
          "indexed": true,
          "internalType": "address",
          "name": "to",
          "type": "address"
        },
        {
          "indexed": true,
          "internalType": "uint256",
          "name": "tokenId",
          "type": "uint256"
        }
      ],
      "name": "Transfer",
      "type": "event"
    },
    {
      "inputs": [
        {
          "internalType": "address",
          "name": "to",
          "type": "address"
        },
        {
          "internalType": "uint256",
          "name": "tokenId",
          "type": "uint256"
        }
      ],
      "name": "approve",
      "outputs": [],
      "stateMutability": "nonpayable",
      "type": "function"
    },
    {
      "inputs": [
        {
          "internalType": "address",
          "name": "owner",
          "type": "address"
        }
      ],
      "name": "balanceOf",
      "outputs": [
        {
          "internalType": "uint256",
          "name": "",
          "type": "uint256"
        }
      ],
      "stateMutability": "view",
      "type": "function"
    },
    {
      "inputs": [
        {
          "internalType": "bytes32",
          "name": "",
          "type": "bytes32"
        }
      ],
      "name": "engineToTokenId",
      "outputs": [
        {
          "internalType": "uint256",
          "name": "",
          "type": "uint256"
        }
      ],
      "stateMutability": "view",
      "type": "function"
    },
    {
      "inputs": [
        {
          "internalType": "uint256",
          "name": "tokenId",
          "type": "uint256"
        }
      ],
      "name": "getApproved",
      "outputs": [
        {
          "internalType": "address",
          "name": "",
          "type": "address"
        }
      ],
      "stateMutability": "view",
      "type": "function"
    },
    {
      "inputs": [
        {
          "internalType": "uint256",
          "name": "tokenId",
          "type": "uint256"
        }
      ],
      "name": "getMotorbike",
      "outputs": [
        {
          "components": [
            {
              "internalType": "string",
              "name": "vin",
              "type": "string"
            },
            {
              "internalType": "string",
              "name": "engineNumber",
              "type": "string"
            },
            {
              "internalType": "string",
              "name": "model",
              "type": "string"
            },
            {
              "internalType": "string",
              "name": "color",
              "type": "string"
            },
            {
              "internalType": "uint256",
              "name": "year",
              "type": "uint256"
            }
          ],
          "internalType": "struct MotorbikeNFT.Motorbike",
          "name": "",
          "type": "tuple"
        }
      ],
      "stateMutability": "view",
      "type": "function"
    },
    {
      "inputs": [
        {
          "internalType": "uint256",
          "name": "reportId",
          "type": "uint256"
        }
      ],
      "name": "getReport",
      "outputs": [
        {
          "internalType": "uint256",
          "name": "id",
          "type": "uint256"
        },
        {
          "internalType": "uint256",
          "name": "tokenId",
          "type": "uint256"
        },
        {
          "internalType": "address",
          "name": "reporter",
          "type": "address"
        },
        {
          "internalType": "string",
          "name": "reason",
          "type": "string"
        },
        {
          "internalType": "uint256",
          "name": "timestamp",
          "type": "uint256"
        },
        {
          "internalType": "bool",
          "name": "resolved",
          "type": "bool"
        },
        {
          "internalType": "address",
          "name": "resolver",
          "type": "address"
        },
        {
          "internalType": "bool",
          "name": "unlocked",
          "type": "bool"
        },
        {
          "internalType": "string",
          "name": "adminNote",
          "type": "string"
        }
      ],
      "stateMutability": "view",
      "type": "function"
    },
    {
      "inputs": [
        {
          "internalType": "uint256",
          "name": "tokenId",
          "type": "uint256"
        }
      ],
      "name": "getTokenReportIds",
      "outputs": [
        {
          "internalType": "uint256[]",
          "name": "",
          "type": "uint256[]"
        }
      ],
      "stateMutability": "view",
      "type": "function"
    },
    {
      "inputs": [
        {
          "internalType": "address",
          "name": "owner",
          "type": "address"
        },
        {
          "internalType": "address",
          "name": "operator",
          "type": "address"
        }
      ],
      "name": "isApprovedForAll",
      "outputs": [
        {
          "internalType": "bool",
          "name": "",
          "type": "bool"
        }
      ],
      "stateMutability": "view",
      "type": "function"
    },
    {
      "inputs": [
        {
          "internalType": "string",
          "name": "engineNumber",
          "type": "string"
        }
      ],
      "name": "isEngineNumberUsed",
      "outputs": [
        {
          "internalType": "bool",
          "name": "",
          "type": "bool"
        }
      ],
      "stateMutability": "view",
      "type": "function"
    },
    {
      "inputs": [
        {
          "internalType": "string",
          "name": "vin",
          "type": "string"
        }
      ],
      "name": "isVinUsed",
      "outputs": [
        {
          "internalType": "bool",
          "name": "",
          "type": "bool"
        }
      ],
      "stateMutability": "view",
      "type": "function"
    },
    {
      "inputs": [
        {
          "internalType": "uint256",
          "name": "",
          "type": "uint256"
        }
      ],
      "name": "lockReason",
      "outputs": [
        {
          "internalType": "string",
          "name": "",
          "type": "string"
        }
      ],
      "stateMutability": "view",
      "type": "function"
    },
    {
      "inputs": [
        {
          "internalType": "uint256",
          "name": "",
          "type": "uint256"
        }
      ],
      "name": "locked",
      "outputs": [
        {
          "internalType": "bool",
          "name": "",
          "type": "bool"
        }
      ],
      "stateMutability": "view",
      "type": "function"
    },
    {
      "inputs": [
        {
          "internalType": "address",
          "name": "to",
          "type": "address"
        },
        {
          "internalType": "string",
          "name": "vin",
          "type": "string"
        },
        {
          "internalType": "string",
          "name": "engineNumber",
          "type": "string"
        },
        {
          "internalType": "string",
          "name": "model",
          "type": "string"
        },
        {
          "internalType": "string",
          "name": "color",
          "type": "string"
        },
        {
          "internalType": "uint256",
          "name": "year",
          "type": "uint256"
        }
      ],
      "name": "mint",
      "outputs": [],
      "stateMutability": "nonpayable",
      "type": "function"
    },
    {
      "inputs": [
        {
          "internalType": "uint256",
          "name": "",
          "type": "uint256"
        }
      ],
      "name": "motorbikes",
      "outputs": [
        {
          "internalType": "string",
          "name": "vin",
          "type": "string"
        },
        {
          "internalType": "string",
          "name": "engineNumber",
          "type": "string"
        },
        {
          "internalType": "string",
          "name": "model",
          "type": "string"
        },
        {
          "internalType": "string",
          "name": "color",
          "type": "string"
        },
        {
          "internalType": "uint256",
          "name": "year",
          "type": "uint256"
        }
      ],
      "stateMutability": "view",
      "type": "function"
    },
    {
      "inputs": [],
      "name": "name",
      "outputs": [
        {
          "internalType": "string",
          "name": "",
          "type": "string"
        }
      ],
      "stateMutability": "view",
      "type": "function"
    },
    {
      "inputs": [],
      "name": "nextReportId",
      "outputs": [
        {
          "internalType": "uint256",
          "name": "",
          "type": "uint256"
        }
      ],
      "stateMutability": "view",
      "type": "function"
    },
    {
      "inputs": [],
      "name": "nextTokenId",
      "outputs": [
        {
          "internalType": "uint256",
          "name": "",
          "type": "uint256"
        }
      ],
      "stateMutability": "view",
      "type": "function"
    },
    {
      "inputs": [],
      "name": "owner",
      "outputs": [
        {
          "internalType": "address",
          "name": "",
          "type": "address"
        }
      ],
      "stateMutability": "view",
      "type": "function"
    },
    {
      "inputs": [
        {
          "internalType": "uint256",
          "name": "tokenId",
          "type": "uint256"
        }
      ],
      "name": "ownerOf",
      "outputs": [
        {
          "internalType": "address",
          "name": "",
          "type": "address"
        }
      ],
      "stateMutability": "view",
      "type": "function"
    },
    {
      "inputs": [],
      "name": "renounceOwnership",
      "outputs": [],
      "stateMutability": "nonpayable",
      "type": "function"
    },
    {
      "inputs": [
        {
          "internalType": "uint256",
          "name": "",
          "type": "uint256"
        }
      ],
      "name": "reports",
      "outputs": [
        {
          "internalType": "uint256",
          "name": "id",
          "type": "uint256"
        },
        {
          "internalType": "uint256",
          "name": "tokenId",
          "type": "uint256"
        },
        {
          "internalType": "address",
          "name": "reporter",
          "type": "address"
        },
        {
          "internalType": "string",
          "name": "reason",
          "type": "string"
        },
        {
          "internalType": "uint256",
          "name": "timestamp",
          "type": "uint256"
        },
        {
          "internalType": "bool",
          "name": "resolved",
          "type": "bool"
        },
        {
          "internalType": "address",
          "name": "resolver",
          "type": "address"
        },
        {
          "internalType": "bool",
          "name": "unlocked",
          "type": "bool"
        },
        {
          "internalType": "string",
          "name": "adminNote",
          "type": "string"
        }
      ],
      "stateMutability": "view",
      "type": "function"
    },
    {
      "inputs": [
        {
          "internalType": "uint256",
          "name": "reportId",
          "type": "uint256"
        },
        {
          "internalType": "bool",
          "name": "unlock",
          "type": "bool"
        },
        {
          "internalType": "string",
          "name": "adminNote",
          "type": "string"
        }
      ],
      "name": "resolveReport",
      "outputs": [],
      "stateMutability": "nonpayable",
      "type": "function"
    },
    {
      "inputs": [
        {
          "internalType": "address",
          "name": "from",
          "type": "address"
        },
        {
          "internalType": "address",
          "name": "to",
          "type": "address"
        },
        {
          "internalType": "uint256",
          "name": "tokenId",
          "type": "uint256"
        }
      ],
      "name": "safeTransferFrom",
      "outputs": [],
      "stateMutability": "nonpayable",
      "type": "function"
    },
    {
      "inputs": [
        {
          "internalType": "address",
          "name": "from",
          "type": "address"
        },
        {
          "internalType": "address",
          "name": "to",
          "type": "address"
        },
        {
          "internalType": "uint256",
          "name": "tokenId",
          "type": "uint256"
        },
        {
          "internalType": "bytes",
          "name": "data",
          "type": "bytes"
        }
      ],
      "name": "safeTransferFrom",
      "outputs": [],
      "stateMutability": "nonpayable",
      "type": "function"
    },
    {
      "inputs": [
        {
          "internalType": "address",
          "name": "operator",
          "type": "address"
        },
        {
          "internalType": "bool",
          "name": "approved",
          "type": "bool"
        }
      ],
      "name": "setApprovalForAll",
      "outputs": [],
      "stateMutability": "nonpayable",
      "type": "function"
    },
    {
      "inputs": [
        {
          "internalType": "uint256",
          "name": "tokenId",
          "type": "uint256"
        },
        {
          "internalType": "bool",
          "name": "isLocked",
          "type": "bool"
        },
        {
          "internalType": "string",
          "name": "reason",
          "type": "string"
        }
      ],
      "name": "setTokenLock",
      "outputs": [],
      "stateMutability": "nonpayable",
      "type": "function"
    },
    {
      "inputs": [
        {
          "internalType": "uint256",
          "name": "tokenId",
          "type": "uint256"
        },
        {
          "internalType": "string",
          "name": "reason",
          "type": "string"
        }
      ],
      "name": "submitReport",
      "outputs": [],
      "stateMutability": "nonpayable",
      "type": "function"
    },
    {
      "inputs": [
        {
          "internalType": "bytes4",
          "name": "interfaceId",
          "type": "bytes4"
        }
      ],
      "name": "supportsInterface",
      "outputs": [
        {
          "internalType": "bool",
          "name": "",
          "type": "bool"
        }
      ],
      "stateMutability": "view",
      "type": "function"
    },
    {
      "inputs": [],
      "name": "symbol",
      "outputs": [
        {
          "internalType": "string",
          "name": "",
          "type": "string"
        }
      ],
      "stateMutability": "view",
      "type": "function"
    },
    {
      "inputs": [
        {
          "internalType": "uint256",
          "name": "",
          "type": "uint256"
        },
        {
          "internalType": "uint256",
          "name": "",
          "type": "uint256"
        }
      ],
      "name": "tokenReportIds",
      "outputs": [
        {
          "internalType": "uint256",
          "name": "",
          "type": "uint256"
        }
      ],
      "stateMutability": "view",
      "type": "function"
    },
    {
      "inputs": [
        {
          "internalType": "uint256",
          "name": "tokenId",
          "type": "uint256"
        }
      ],
      "name": "tokenURI",
      "outputs": [
        {
          "internalType": "string",
          "name": "",
          "type": "string"
        }
      ],
      "stateMutability": "view",
      "type": "function"
    },
    {
      "inputs": [],
      "name": "totalSupply",
      "outputs": [
        {
          "internalType": "uint256",
          "name": "",
          "type": "uint256"
        }
      ],
      "stateMutability": "view",
      "type": "function"
    },
    {
      "inputs": [
        {
          "internalType": "address",
          "name": "from",
          "type": "address"
        },
        {
          "internalType": "address",
          "name": "to",
          "type": "address"
        },
        {
          "internalType": "uint256",
          "name": "tokenId",
          "type": "uint256"
        }
      ],
      "name": "transferFrom",
      "outputs": [],
      "stateMutability": "nonpayable",
      "type": "function"
    },
    {
      "inputs": [
        {
          "internalType": "address",
          "name": "newOwner",
          "type": "address"
        }
      ],
      "name": "transferOwnership",
      "outputs": [],
      "stateMutability": "nonpayable",
      "type": "function"
    },
    {
      "inputs": [
        {
          "internalType": "uint256",
          "name": "tokenId",
          "type": "uint256"
        },
        {
          "internalType": "string",
          "name": "model",
          "type": "string"
        },
        {
          "internalType": "string",
          "name": "color",
          "type": "string"
        },
        {
          "internalType": "uint256",
          "name": "year",
          "type": "uint256"
        }
      ],
      "name": "updateMotorbikeDetails",
      "outputs": [],
      "stateMutability": "nonpayable",
      "type": "function"
    },
    {
      "inputs": [
        {
          "internalType": "bytes32",
          "name": "",
          "type": "bytes32"
        }
      ],
      "name": "vinToTokenId",
      "outputs": [
        {
          "internalType": "uint256",
          "name": "",
          "type": "uint256"
        }
      ],
      "stateMutability": "view",
      "type": "function"
    }
  ],
  "bytecode": "0x60806040523480156200001157600080fd5b50336040518060400160405280600c81526020016b135bdd1bdc989a5ad953919560a21b81525060405180604001604052806005815260200164135093919560da1b8152508160009081620000679190620001b1565b506001620000768282620001b1565b5050506001600160a01b038116620000a857604051631e4fbdf760e01b81526000600482015260240160405180910390fd5b620000b381620000ba565b506200027d565b600680546001600160a01b038381166001600160a01b0319831681179093556040519116919082907f8be0079c531659141344cd1fd0a4f28419497f9722a3daafe3b4186f6b6457e090600090a35050565b634e487b7160e01b600052604160045260246000fd5b600181811c908216806200013757607f821691505b6020821081036200015857634e487b7160e01b600052602260045260246000fd5b50919050565b601f821115620001ac57600081815260208120601f850160051c81016020861015620001875750805b601f850160051c820191505b81811015620001a85782815560010162000193565b5050505b505050565b81516001600160401b03811115620001cd57620001cd6200010c565b620001e581620001de845462000122565b846200015e565b602080601f8311600181146200021d5760008415620002045750858301515b600019600386901b1c1916600185901b178555620001a8565b600085815260208120601f198616915b828110156200024e578886015182559484019460019091019084016200022d565b50858210156200026d5787850151600019600388901b60f8161c191681555b5050505050600190811b01905550565b612d58806200028d6000396000f3fe608060405234801561001057600080fd5b506004361061021c5760003560e01c806375794a3c11610125578063ad59eff3116100ad578063c87b56dd1161007c578063c87b56dd146104dc578063c942adf7146104ef578063deb1aeaa14610502578063e985e9c514610515578063f2fde38b1461052857600080fd5b8063ad59eff314610473578063b45a3c0e14610493578063b88d4fde146104b6578063baf28387146104c957600080fd5b8063934eb414116100f4578063934eb414146103f857806395d89b41146104185780639b58c63614610420578063a09b5c1314610440578063a22cb4651461046057600080fd5b806375794a3c146103b8578063777b4958146103c15780638da5cb5b146103d457806390030457146103e557600080fd5b806339a5e9f6116101a857806362f46d151161017757806362f46d151461036e5780636352211e146103815780636e79bbf61461039457806370a082311461039d578063715018a6146103b057600080fd5b806339a5e9f61461030d57806342842e0e1461032057806345ebfba1146103335780634e7f9b191461034657600080fd5b8063149c9db0116101ef578063149c9db01461029e57806318160ddd146102c25780631ad0ba0c146102d45780631efc2dd7146102e757806323b872dd146102fa57600080fd5b806301ffc9a71461022157806306fdde0314610249578063081812fc1461025e578063095ea7b314610289575b600080fd5b61023461022f366004612268565b61053b565b60405190151581526020015b60405180910390f35b61025161058d565b60405161024091906122d5565b61027161026c3660046122e8565b61061f565b6040516001600160a01b039091168152602001610240565b61029c61029736600461231d565b610648565b005b6102b16102ac3660046122e8565b610657565b604051610240959493929190612347565b600c545b604051908152602001610240565b61029c6102e2366004612400565b6108a5565b6102346102f5366004612506565b610a61565b61029c61030836600461253b565b610aa7565b61029c61031b366004612577565b610b32565b61029c61032e36600461253b565b610bee565b6102c66103413660046125f9565b610c0e565b6103596103543660046122e8565b610c3f565b6040516102409998979695949392919061261b565b61029c61037c366004612692565b610ddc565b61027161038f3660046122e8565b610ffc565b6102c6600f5481565b6102c66103ab366004612758565b611007565b61029c61104f565b6102c6600c5481565b61029c6103cf366004612400565b611063565b6006546001600160a01b0316610271565b61029c6103f3366004612773565b61114c565b61040b6104063660046122e8565b6113ec565b60405161024091906127bf565b61025161144e565b6102c661042e3660046122e8565b600b6020526000908152604090205481565b61045361044e3660046122e8565b61145d565b6040516102409190612803565b61029c61046e36600461288f565b611731565b6102c66104813660046122e8565b600a6020526000908152604090205481565b6102346104a13660046122e8565b600d6020526000908152604090205460ff1681565b61029c6104c43660046128c2565b61173c565b6102516104d73660046122e8565b611754565b6102516104ea3660046122e8565b6117ee565b6103596104fd3660046122e8565b611863565b610234610510366004612506565b6119dc565b61023461052336600461293e565b6119f3565b61029c610536366004612758565b611a21565b60006001600160e01b031982166380ac58cd60e01b148061056c57506001600160e01b03198216635b5e139f60e01b145b8061058757506301ffc9a760e01b6001600160e01b03198316145b92915050565b60606000805461059c90612968565b80601f01602080910402602001604051908101604052809291908181526020018280546105c890612968565b80156106155780601f106105ea57610100808354040283529160200191610615565b820191906000526020600020905b8154815290600101906020018083116105f857829003601f168201915b5050505050905090565b600061062a82611a5f565b506000828152600460205260409020546001600160a01b0316610587565b610653828233611a98565b5050565b60076020526000908152604090208054819061067290612968565b80601f016020809104026020016040519081016040528092919081815260200182805461069e90612968565b80156106eb5780601f106106c0576101008083540402835291602001916106eb565b820191906000526020600020905b8154815290600101906020018083116106ce57829003601f168201915b50505050509080600101805461070090612968565b80601f016020809104026020016040519081016040528092919081815260200182805461072c90612968565b80156107795780601f1061074e57610100808354040283529160200191610779565b820191906000526020600020905b81548152906001019060200180831161075c57829003601f168201915b50505050509080600201805461078e90612968565b80601f01602080910402602001604051908101604052809291908181526020018280546107ba90612968565b80156108075780601f106107dc57610100808354040283529160200191610807565b820191906000526020600020905b8154815290600101906020018083116107ea57829003601f168201915b50505050509080600301805461081c90612968565b80601f016020809104026020016040519081016040528092919081815260200182805461084890612968565b80156108955780601f1061086a57610100808354040283529160200191610895565b820191906000526020600020905b81548152906001019060200180831161087857829003601f168201915b5050505050908060040154905085565b6108ad611aa5565b6000848152601060205260409020600581015460ff16156109085760405162461bcd60e51b815260206004820152601060248201526f105b1c9958591e481c995cdbdb1d995960821b60448201526064015b60405180910390fd5b60058101805460016001600160a81b03199091166101003302171760ff60a81b1916600160a81b86151502179055600681016109458385836129e8565b50838015610966575060018101546000908152600d602052604090205460ff165b15610a17576001810180546000908152600d60209081526040808320805460ff191690558051808301825283815293548352600e9091529020906109aa9082612aa8565b5080600101547f91a9912fed89bd30033aa30be97f0493ac57d6c28b76a01c210eb37278420bf76000604051610a0e91151581526040602082018190526012908201527115539313d0d2d15117d09657d4915413d49560721b606082015260800190565b60405180910390a25b8060010154857ff4d0c370bc65d958196f8364271849962346d8911fa666ff1bf2bc69dfb81cab33878787604051610a529493929190612b91565b60405180910390a35050505050565b60006008600083604051602001610a789190612bc8565b60408051601f198184030181529181528151602092830120835290820192909252016000205460ff1692915050565b6001600160a01b038216610ad157604051633250574960e11b8152600060048201526024016108ff565b6000610ade838333611ad2565b9050836001600160a01b0316816001600160a01b031614610b2c576040516364283d7b60e01b81526001600160a01b03808616600483015260248201849052821660448201526064016108ff565b50505050565b610b3a611aa5565b6000868152600260205260409020546001600160a01b0316610b6e5760405162461bcd60e51b81526004016108ff90612be4565b600086815260076020526040902060028101610b8b8688836129e8565b5060038101610b9b8486836129e8565b50818160040181905550867f989cb7f586f7dc4784a41ffd618ef7d6f4ddfc1d4e7664e33da17cd6a0b151968787878787604051610bdd959493929190612c12565b60405180910390a250505050505050565b610c098383836040518060200160405280600081525061173c565b505050565b60116020528160005260406000208181548110610c2a57600080fd5b90600052602060002001600091509150505481565b6000818152601060205260408120805460018201546002830154600484015460058501546003860180548897889760609789978897889788978c976001600160a01b039485169491939260ff8082169361010083041692600160a81b909204169060068a01908690610cb090612968565b80601f0160208091040260200160405190810160405280929190818152602001828054610cdc90612968565b8015610d295780601f10610cfe57610100808354040283529160200191610d29565b820191906000526020600020905b815481529060010190602001808311610d0c57829003601f168201915b50505050509550808054610d3c90612968565b80601f0160208091040260200160405190810160405280929190818152602001828054610d6890612968565b8015610db55780601f10610d8a57610100808354040283529160200191610db5565b820191906000526020600020905b815481529060010190602001808311610d9857829003601f168201915b50505050509050995099509950995099509950995099509950509193959799909294969850565b610de4611aa5565b600085604051602001610df79190612bc8565b604051602081830303815290604052805190602001209050600085604051602001610e229190612bc8565b60408051601f1981840301815291815281516020928301206000858152600890935291205490915060ff1615610e8f5760405162461bcd60e51b815260206004820152601260248201527156494e20616c72656164792065786973747360701b60448201526064016108ff565b60008181526009602052604090205460ff1615610eee5760405162461bcd60e51b815260206004820152601c60248201527f456e67696e65206e756d62657220616c7265616479206578697374730000000060448201526064016108ff565b6040805160a08101825288815260208082018990528183018890526060820187905260808201869052600c54600090815260079091529190912081518190610f369082612aa8565b5060208201516001820190610f4b9082612aa8565b5060408201516002820190610f609082612aa8565b5060608201516003820190610f759082612aa8565b5060808201518160040155905050610f8f88600c54611b6b565b60008281526008602090815260408083208054600160ff1991821681179092558585526009845282852080549091169091179055600c8054868552600a8452828520819055858552600b9093529083208290559091610fed83612c4c565b91905055505050505050505050565b600061058782611a5f565b60006001600160a01b038216611033576040516322718ad960e21b8152600060048201526024016108ff565b506001600160a01b031660009081526003602052604090205490565b611057611aa5565b6110616000611b85565b565b61106b611aa5565b6000848152600260205260409020546001600160a01b031661109f5760405162461bcd60e51b81526004016108ff90612be4565b6000848152600d60205260409020805460ff191684158015919091179091556110e1576000848152600e602052604090206110db8284836129e8565b5061110a565b60408051602080820183526000808352878152600e90915291909120906111089082612aa8565b505b837f91a9912fed89bd30033aa30be97f0493ac57d6c28b76a01c210eb37278420bf784848460405161113e93929190612c73565b60405180910390a250505050565b6000838152600260205260409020546001600160a01b03166111805760405162461bcd60e51b81526004016108ff90612be4565b6000838152600d602052604090205460ff166111d15760405162461bcd60e51b815260206004820152601060248201526f151bdad95b881b9bdd081b1bd8dad95960821b60448201526064016108ff565b806112105760405162461bcd60e51b815260206004820152600f60248201526e1499585cdbdb881c995c5d5a5c9959608a1b60448201526064016108ff565b600f80546000918261122183612c4c565b919050559050604051806101200160405280828152602001858152602001336001600160a01b0316815260200184848080601f016020809104026020016040519081016040528093929190818152602001838380828437600092018290525093855250504260208085019190915260408085018490526060808601859052608086018590528151808401835285815260a090960195909552868452601082529283902085518155908501516001820155918401516002830180546001600160a01b0319166001600160a01b039092169190911790555090820151600382019061130a9082612aa8565b506080820151600482015560a082015160058201805460c085015160e08601516001600160a81b0319909216931515610100600160a81b031916939093176101006001600160a01b0390941684021760ff60a81b1916600160a81b9115159190910217905582015160068201906113819082612aa8565b505050600084815260116020908152604080832080546001810182559084529190922001829055513390859083907fd8d70bbc43d95fae4322943d483f06e8fcc2353f5c151a45fe7e6b4cab35400b906113de9088908890612c8f565b60405180910390a450505050565b60008181526011602090815260409182902080548351818402810184019094528084526060939283018282801561144257602002820191906000526020600020905b81548152602001906001019080831161142e575b50505050509050919050565b60606001805461059c90612968565b61148f6040518060a0016040528060608152602001606081526020016060815260200160608152602001600081525090565b600061149a83610ffc565b6001600160a01b0316036114c05760405162461bcd60e51b81526004016108ff90612be4565b60008281526007602052604090819020815160a081019092528054829082906114e890612968565b80601f016020809104026020016040519081016040528092919081815260200182805461151490612968565b80156115615780601f1061153657610100808354040283529160200191611561565b820191906000526020600020905b81548152906001019060200180831161154457829003601f168201915b5050505050815260200160018201805461157a90612968565b80601f01602080910402602001604051908101604052809291908181526020018280546115a690612968565b80156115f35780601f106115c8576101008083540402835291602001916115f3565b820191906000526020600020905b8154815290600101906020018083116115d657829003601f168201915b5050505050815260200160028201805461160c90612968565b80601f016020809104026020016040519081016040528092919081815260200182805461163890612968565b80156116855780601f1061165a57610100808354040283529160200191611685565b820191906000526020600020905b81548152906001019060200180831161166857829003601f168201915b5050505050815260200160038201805461169e90612968565b80601f01602080910402602001604051908101604052809291908181526020018280546116ca90612968565b80156117175780601f106116ec57610100808354040283529160200191611717565b820191906000526020600020905b8154815290600101906020018083116116fa57829003601f168201915b505050505081526020016004820154815250509050919050565b610653338383611bd7565b611747848484610aa7565b610b2c3385858585611c76565b600e602052600090815260409020805461176d90612968565b80601f016020809104026020016040519081016040528092919081815260200182805461179990612968565b80156117e65780601f106117bb576101008083540402835291602001916117e6565b820191906000526020600020905b8154815290600101906020018083116117c957829003601f168201915b505050505081565b60606117f982611a5f565b50600061181160408051602081019091526000815290565b90506000815111611831576040518060200160405280600081525061185c565b8061183b84611da1565b60405160200161184c929190612ca3565b6040516020818303038152906040525b9392505050565b6010602052600090815260409020805460018201546002830154600384018054939492936001600160a01b03909216929161189d90612968565b80601f01602080910402602001604051908101604052809291908181526020018280546118c990612968565b80156119165780601f106118eb57610100808354040283529160200191611916565b820191906000526020600020905b8154815290600101906020018083116118f957829003601f168201915b50505050600483015460058401546006850180549495929460ff808416955061010084046001600160a01b031694600160a81b9094041692919061195990612968565b80601f016020809104026020016040519081016040528092919081815260200182805461198590612968565b80156119d25780601f106119a7576101008083540402835291602001916119d2565b820191906000526020600020905b8154815290600101906020018083116119b557829003601f168201915b5050505050905089565b60006009600083604051602001610a789190612bc8565b6001600160a01b03918216600090815260056020908152604080832093909416825291909152205460ff1690565b611a29611aa5565b6001600160a01b038116611a5357604051631e4fbdf760e01b8152600060048201526024016108ff565b611a5c81611b85565b50565b6000818152600260205260408120546001600160a01b03168061058757604051637e27328960e01b8152600481018490526024016108ff565b610c098383836001611e34565b6006546001600160a01b031633146110615760405163118cdaa760e01b81523360048201526024016108ff565b6000828152600260205260408120546001600160a01b03168015801590611b0157506001600160a01b03851615155b15611b57576000848152600d602052604090205460ff1615611b575760405162461bcd60e51b815260206004820152600f60248201526e151bdad95b881a5cc81b1bd8dad959608a1b60448201526064016108ff565b611b62858585611f3a565b95945050505050565b610653828260405180602001604052806000815250612033565b600680546001600160a01b038381166001600160a01b0319831681179093556040519116919082907f8be0079c531659141344cd1fd0a4f28419497f9722a3daafe3b4186f6b6457e090600090a35050565b6001600160a01b038216611c0957604051630b61174360e31b81526001600160a01b03831660048201526024016108ff565b6001600160a01b03838116600081815260056020908152604080832094871680845294825291829020805460ff191686151590811790915591519182527f17307eab39ab6107e8899845ad3d59bd9653f200f220920489ca2b5937696c31910160405180910390a3505050565b6001600160a01b0383163b15611d9a57604051630a85bd0160e11b81526001600160a01b0384169063150b7a0290611cb8908890889087908790600401612cd2565b6020604051808303816000875af1925050508015611cf3575060408051601f3d908101601f19168201909252611cf091810190612d05565b60015b611d5c573d808015611d21576040519150601f19603f3d011682016040523d82523d6000602084013e611d26565b606091505b508051600003611d5457604051633250574960e11b81526001600160a01b03851660048201526024016108ff565b805160208201fd5b6001600160e01b03198116630a85bd0160e11b14611d9857604051633250574960e11b81526001600160a01b03851660048201526024016108ff565b505b5050505050565b60606000611dae8361204b565b600101905060008167ffffffffffffffff811115611dce57611dce61245a565b6040519080825280601f01601f191660200182016040528015611df8576020820181803683370190505b5090508181016020015b600019016f181899199a1a9b1b9c1cb0b131b232b360811b600a86061a8153600a8504945084611e0257509392505050565b8080611e4857506001600160a01b03821615155b15611f0a576000611e5884611a5f565b90506001600160a01b03831615801590611e845750826001600160a01b0316816001600160a01b031614155b8015611e975750611e9581846119f3565b155b15611ec05760405163a9fbf51f60e01b81526001600160a01b03841660048201526024016108ff565b8115611f085783856001600160a01b0316826001600160a01b03167f8c5be1e5ebec7d5bd14f71427d1e84f3dd0314c0f7b2291e5b200ac8c7c3b92560405160405180910390a45b505b5050600090815260046020526040902080546001600160a01b0319166001600160a01b0392909216919091179055565b6000828152600260205260408120546001600160a01b0390811690831615611f6757611f67818486612123565b6001600160a01b03811615611fa557611f84600085600080611e34565b6001600160a01b038116600090815260036020526040902080546000190190555b6001600160a01b03851615611fd4576001600160a01b0385166000908152600360205260409020805460010190555b60008481526002602052604080822080546001600160a01b0319166001600160a01b0389811691821790925591518793918516917fddf252ad1be2c89b69c2b068fc378daa952ba7f163c4a11628f55a4df523b3ef91a4949350505050565b61203d8383612187565b610c09336000858585611c76565b60008072184f03e93ff9f4daa797ed6e38ed64bf6a1f0160401b831061208a5772184f03e93ff9f4daa797ed6e38ed64bf6a1f0160401b830492506040015b6d04ee2d6d415b85acef810000000083106120b6576d04ee2d6d415b85acef8100000000830492506020015b662386f26fc1000083106120d457662386f26fc10000830492506010015b6305f5e10083106120ec576305f5e100830492506008015b612710831061210057612710830492506004015b60648310612112576064830492506002015b600a83106105875760010192915050565b61212e8383836121ec565b610c09576001600160a01b03831661215c57604051637e27328960e01b8152600481018290526024016108ff565b60405163177e802f60e01b81526001600160a01b0383166004820152602481018290526044016108ff565b6001600160a01b0382166121b157604051633250574960e11b8152600060048201526024016108ff565b60006121bf83836000611ad2565b90506001600160a01b03811615610c09576040516339e3563760e11b8152600060048201526024016108ff565b60006001600160a01b0383161580159061224a5750826001600160a01b0316846001600160a01b03161480612226575061222684846119f3565b8061224a57506000828152600460205260409020546001600160a01b038481169116145b949350505050565b6001600160e01b031981168114611a5c57600080fd5b60006020828403121561227a57600080fd5b813561185c81612252565b60005b838110156122a0578181015183820152602001612288565b50506000910152565b600081518084526122c1816020860160208601612285565b601f01601f19169290920160200192915050565b60208152600061185c60208301846122a9565b6000602082840312156122fa57600080fd5b5035919050565b80356001600160a01b038116811461231857600080fd5b919050565b6000806040838503121561233057600080fd5b61233983612301565b946020939093013593505050565b60a08152600061235a60a08301886122a9565b828103602084015261236c81886122a9565b9050828103604084015261238081876122a9565b9050828103606084015261239481866122a9565b9150508260808301529695505050505050565b8035801515811461231857600080fd5b60008083601f8401126123c957600080fd5b50813567ffffffffffffffff8111156123e157600080fd5b6020830191508360208285010111156123f957600080fd5b9250929050565b6000806000806060858703121561241657600080fd5b84359350612426602086016123a7565b9250604085013567ffffffffffffffff81111561244257600080fd5b61244e878288016123b7565b95989497509550505050565b634e487b7160e01b600052604160045260246000fd5b600067ffffffffffffffff8084111561248b5761248b61245a565b604051601f8501601f19908116603f011681019082821181831017156124b3576124b361245a565b816040528093508581528686860111156124cc57600080fd5b858560208301376000602087830101525050509392505050565b600082601f8301126124f757600080fd5b61185c83833560208501612470565b60006020828403121561251857600080fd5b813567ffffffffffffffff81111561252f57600080fd5b61224a848285016124e6565b60008060006060848603121561255057600080fd5b61255984612301565b925061256760208501612301565b9150604084013590509250925092565b6000806000806000806080878903121561259057600080fd5b86359550602087013567ffffffffffffffff808211156125af57600080fd5b6125bb8a838b016123b7565b909750955060408901359150808211156125d457600080fd5b506125e189828a016123b7565b979a9699509497949695606090950135949350505050565b6000806040838503121561260c57600080fd5b50508035926020909101359150565b898152602081018990526001600160a01b0388811660408301526101206060830181905260009161264e8483018b6122a9565b915088608085015287151560a085015280871660c08501525084151560e084015282810361010084015261268281856122a9565b9c9b505050505050505050505050565b60008060008060008060c087890312156126ab57600080fd5b6126b487612301565b9550602087013567ffffffffffffffff808211156126d157600080fd5b6126dd8a838b016124e6565b965060408901359150808211156126f357600080fd5b6126ff8a838b016124e6565b9550606089013591508082111561271557600080fd5b6127218a838b016124e6565b9450608089013591508082111561273757600080fd5b5061274489828a016124e6565b92505060a087013590509295509295509295565b60006020828403121561276a57600080fd5b61185c82612301565b60008060006040848603121561278857600080fd5b83359250602084013567ffffffffffffffff8111156127a657600080fd5b6127b2868287016123b7565b9497909650939450505050565b6020808252825182820181905260009190848201906040850190845b818110156127f7578351835292840192918401916001016127db565b50909695505050505050565b602081526000825160a0602084015261281f60c08401826122a9565b90506020840151601f198085840301604086015261283d83836122a9565b9250604086015191508085840301606086015261285a83836122a9565b925060608601519150808584030160808601525061287882826122a9565b915050608084015160a08401528091505092915050565b600080604083850312156128a257600080fd5b6128ab83612301565b91506128b9602084016123a7565b90509250929050565b600080600080608085870312156128d857600080fd5b6128e185612301565b93506128ef60208601612301565b925060408501359150606085013567ffffffffffffffff81111561291257600080fd5b8501601f8101871361292357600080fd5b61293287823560208401612470565b91505092959194509250565b6000806040838503121561295157600080fd5b61295a83612301565b91506128b960208401612301565b600181811c9082168061297c57607f821691505b60208210810361299c57634e487b7160e01b600052602260045260246000fd5b50919050565b601f821115610c0957600081815260208120601f850160051c810160208610156129c95750805b601f850160051c820191505b81811015611d98578281556001016129d5565b67ffffffffffffffff831115612a0057612a0061245a565b612a1483612a0e8354612968565b836129a2565b6000601f841160018114612a485760008515612a305750838201355b600019600387901b1c1916600186901b178355611d9a565b600083815260209020601f19861690835b82811015612a795786850135825560209485019460019092019101612a59565b5086821015612a965760001960f88860031b161c19848701351681555b505060018560011b0183555050505050565b815167ffffffffffffffff811115612ac257612ac261245a565b612ad681612ad08454612968565b846129a2565b602080601f831160018114612b0b5760008415612af35750858301515b600019600386901b1c1916600185901b178555611d98565b600085815260208120601f198616915b82811015612b3a57888601518255948401946001909101908401612b1b565b5085821015612b585787850151600019600388901b60f8161c191681555b5050505050600190811b01905550565b81835281816020850137506000828201602090810191909152601f909101601f19169091010190565b6001600160a01b03851681528315156020820152606060408201819052600090612bbe9083018486612b68565b9695505050505050565b60008251612bda818460208701612285565b9190910192915050565b602080825260149082015273151bdad95b88191bd95cc81b9bdd08195e1a5cdd60621b604082015260600190565b606081526000612c26606083018789612b68565b8281036020840152612c39818688612b68565b9150508260408301529695505050505050565b600060018201612c6c57634e487b7160e01b600052601160045260246000fd5b5060010190565b8315158152604060208201526000611b62604083018486612b68565b60208152600061224a602083018486612b68565b60008351612cb5818460208801612285565b835190830190612cc9818360208801612285565b01949350505050565b6001600160a01b0385811682528416602082015260408101839052608060608201819052600090612bbe908301846122a9565b600060208284031215612d1757600080fd5b815161185c8161225256fea2646970667358221220097e7d3421d8ae1a8ea414404351b474d1cb046299d2b9fbbabb45859855690464736f6c63430008140033",
  "linkReferences": {},
  "deployedLinkReferences": {}
}