{
  "_format": "hh-sol-artifact-1",
  "contractName": "MotorbikeNFT",
  "sourceName": "contracts/MotorbikeNFT.sol",
  "abi": [
    {
      "inputs": [],
      "stateMutability": "nonpayable",
      "type": "constructor"
    },
    {
      "inputs": [
        {
          "internalType": "address",
          "name": "sender",
          "type": "address"
        },
        {
          "internalType": "uint256",
          "name": "tokenId",
          "type": "uint256"
        },
        {
          "internalType": "address",
          "name": "owner",
          "type": "address"
        }
      ],
      "name": "ERC721IncorrectOwner",
      "type": "error"
    },
    {
      "inputs": [
        {
          "internalType": "address",
          "name": "operator",
          "type": "address"
        },
        {
          "internalType": "uint256",
          "name": "tokenId",
          "type": "uint256"
        }
      ],
      "name": "ERC721InsufficientApproval",
      "type": "error"
    },
    {
      "inputs": [
        {
          "internalType": "address",
          "name": "approver",
          "type": "address"
        }
      ],
      "name": "ERC721InvalidApprover",
      "type": "error"
    },
    {
      "inputs": [
        {
          "internalType": "address",
          "name": "operator",
          "type": "address"
        }
      ],
      "name": "ERC721InvalidOperator",
      "type": "error"
    },
    {
      "inputs": [
        {
          "internalType": "address",
          "name": "owner",
          "type": "address"
        }
      ],
      "name": "ERC721InvalidOwner",
      "type": "error"
    },
    {
      "inputs": [
        {
          "internalType": "address",
          "name": "receiver",
          "type": "address"
        }
      ],
      "name": "ERC721InvalidReceiver",
      "type": "error"
    },
    {
      "inputs": [
        {
          "internalType": "address",
          "name": "sender",
          "type": "address"
        }
      ],
      "name": "ERC721InvalidSender",
      "type": "error"
    },
    {
      "inputs": [
        {
          "internalType": "uint256",
          "name": "tokenId",
          "type": "uint256"
        }
      ],
      "name": "ERC721NonexistentToken",
      "type": "error"
    },
    {
      "inputs": [
        {
          "internalType": "address",
          "name": "owner",
          "type": "address"
        }
      ],
      "name": "OwnableInvalidOwner",
      "type": "error"
    },
    {
      "inputs": [
        {
          "internalType": "address",
          "name": "account",
          "type": "address"
        }
      ],
      "name": "OwnableUnauthorizedAccount",
      "type": "error"
    },
    {
      "anonymous": false,
      "inputs": [
        {
          "indexed": true,
          "internalType": "address",
          "name": "owner",
          "type": "address"
        },
        {
          "indexed": true,
          "internalType": "address",
          "name": "approved",
          "type": "address"
        },
        {
          "indexed": true,
          "internalType": "uint256",
          "name": "tokenId",
          "type": "uint256"
        }
      ],
      "name": "Approval",
      "type": "event"
    },
    {
      "anonymous": false,
      "inputs": [
        {
          "indexed": true,
          "internalType": "address",
          "name": "owner",
          "type": "address"
        },
        {
          "indexed": true,
          "internalType": "address",
          "name": "operator",
          "type": "address"
        },
        {
          "indexed": false,
          "internalType": "bool",
          "name": "approved",
          "type": "bool"
        }
      ],
      "name": "ApprovalForAll",
      "type": "event"
    },
    {
      "anonymous": false,
      "inputs": [
        {
          "indexed": true,
          "internalType": "address",
          "name": "previousOwner",
          "type": "address"
        },
        {
          "indexed": true,
          "internalType": "address",
          "name": "newOwner",
          "type": "address"
        }
      ],
      "name": "OwnershipTransferred",
      "type": "event"
    },
    {
      "anonymous": false,
      "inputs": [
        {
          "indexed": true,
          "internalType": "address",
          "name": "from",
          "type": "address"
        },
        {
          "indexed": true,
          "internalType": "address",
          "name": "to",
          "type": "address"
        },
        {
          "indexed": true,
          "internalType": "uint256",
          "name": "tokenId",
          "type": "uint256"
        }
      ],
      "name": "Transfer",
      "type": "event"
    },
    {
      "inputs": [
        {
          "internalType": "address",
          "name": "to",
          "type": "address"
        },
        {
          "internalType": "uint256",
          "name": "tokenId",
          "type": "uint256"
        }
      ],
      "name": "approve",
      "outputs": [],
      "stateMutability": "nonpayable",
      "type": "function"
    },
    {
      "inputs": [
        {
          "internalType": "address",
          "name": "owner",
          "type": "address"
        }
      ],
      "name": "balanceOf",
      "outputs": [
        {
          "internalType": "uint256",
          "name": "",
          "type": "uint256"
        }
      ],
      "stateMutability": "view",
      "type": "function"
    },
    {
      "inputs": [
        {
          "internalType": "uint256",
          "name": "tokenId",
          "type": "uint256"
        }
      ],
      "name": "getApproved",
      "outputs": [
        {
          "internalType": "address",
          "name": "",
          "type": "address"
        }
      ],
      "stateMutability": "view",
      "type": "function"
    },
    {
      "inputs": [
        {
          "internalType": "uint256",
          "name": "tokenId",
          "type": "uint256"
        }
      ],
      "name": "getMotorbike",
      "outputs": [
        {
          "components": [
            {
              "internalType": "string",
              "name": "vin",
              "type": "string"
            },
            {
              "internalType": "string",
              "name": "engineNumber",
              "type": "string"
            },
            {
              "internalType": "string",
              "name": "model",
              "type": "string"
            },
            {
              "internalType": "string",
              "name": "color",
              "type": "string"
            },
            {
              "internalType": "uint256",
              "name": "year",
              "type": "uint256"
            }
          ],
          "internalType": "struct MotorbikeNFT.Motorbike",
          "name": "",
          "type": "tuple"
        }
      ],
      "stateMutability": "view",
      "type": "function"
    },
    {
      "inputs": [
        {
          "internalType": "address",
          "name": "owner",
          "type": "address"
        },
        {
          "internalType": "address",
          "name": "operator",
          "type": "address"
        }
      ],
      "name": "isApprovedForAll",
      "outputs": [
        {
          "internalType": "bool",
          "name": "",
          "type": "bool"
        }
      ],
      "stateMutability": "view",
      "type": "function"
    },
    {
      "inputs": [
        {
          "internalType": "address",
          "name": "to",
          "type": "address"
        },
        {
          "internalType": "string",
          "name": "vin",
          "type": "string"
        },
        {
          "internalType": "string",
          "name": "engineNumber",
          "type": "string"
        },
        {
          "internalType": "string",
          "name": "model",
          "type": "string"
        },
        {
          "internalType": "string",
          "name": "color",
          "type": "string"
        },
        {
          "internalType": "uint256",
          "name": "year",
          "type": "uint256"
        }
      ],
      "name": "mint",
      "outputs": [],
      "stateMutability": "nonpayable",
      "type": "function"
    },
    {
      "inputs": [
        {
          "internalType": "uint256",
          "name": "",
          "type": "uint256"
        }
      ],
      "name": "motorbikes",
      "outputs": [
        {
          "internalType": "string",
          "name": "vin",
          "type": "string"
        },
        {
          "internalType": "string",
          "name": "engineNumber",
          "type": "string"
        },
        {
          "internalType": "string",
          "name": "model",
          "type": "string"
        },
        {
          "internalType": "string",
          "name": "color",
          "type": "string"
        },
        {
          "internalType": "uint256",
          "name": "year",
          "type": "uint256"
        }
      ],
      "stateMutability": "view",
      "type": "function"
    },
    {
      "inputs": [],
      "name": "name",
      "outputs": [
        {
          "internalType": "string",
          "name": "",
          "type": "string"
        }
      ],
      "stateMutability": "view",
      "type": "function"
    },
    {
      "inputs": [],
      "name": "nextTokenId",
      "outputs": [
        {
          "internalType": "uint256",
          "name": "",
          "type": "uint256"
        }
      ],
      "stateMutability": "view",
      "type": "function"
    },
    {
      "inputs": [],
      "name": "owner",
      "outputs": [
        {
          "internalType": "address",
          "name": "",
          "type": "address"
        }
      ],
      "stateMutability": "view",
      "type": "function"
    },
    {
      "inputs": [
        {
          "internalType": "uint256",
          "name": "tokenId",
          "type": "uint256"
        }
      ],
      "name": "ownerOf",
      "outputs": [
        {
          "internalType": "address",
          "name": "",
          "type": "address"
        }
      ],
      "stateMutability": "view",
      "type": "function"
    },
    {
      "inputs": [],
      "name": "renounceOwnership",
      "outputs": [],
      "stateMutability": "nonpayable",
      "type": "function"
    },
    {
      "inputs": [
        {
          "internalType": "address",
          "name": "from",
          "type": "address"
        },
        {
          "internalType": "address",
          "name": "to",
          "type": "address"
        },
        {
          "internalType": "uint256",
          "name": "tokenId",
          "type": "uint256"
        }
      ],
      "name": "safeTransferFrom",
      "outputs": [],
      "stateMutability": "nonpayable",
      "type": "function"
    },
    {
      "inputs": [
        {
          "internalType": "address",
          "name": "from",
          "type": "address"
        },
        {
          "internalType": "address",
          "name": "to",
          "type": "address"
        },
        {
          "internalType": "uint256",
          "name": "tokenId",
          "type": "uint256"
        },
        {
          "internalType": "bytes",
          "name": "data",
          "type": "bytes"
        }
      ],
      "name": "safeTransferFrom",
      "outputs": [],
      "stateMutability": "nonpayable",
      "type": "function"
    },
    {
      "inputs": [
        {
          "internalType": "address",
          "name": "operator",
          "type": "address"
        },
        {
          "internalType": "bool",
          "name": "approved",
          "type": "bool"
        }
      ],
      "name": "setApprovalForAll",
      "outputs": [],
      "stateMutability": "nonpayable",
      "type": "function"
    },
    {
      "inputs": [
        {
          "internalType": "bytes4",
          "name": "interfaceId",
          "type": "bytes4"
        }
      ],
      "name": "supportsInterface",
      "outputs": [
        {
          "internalType": "bool",
          "name": "",
          "type": "bool"
        }
      ],
      "stateMutability": "view",
      "type": "function"
    },
    {
      "inputs": [],
      "name": "symbol",
      "outputs": [
        {
          "internalType": "string",
          "name": "",
          "type": "string"
        }
      ],
      "stateMutability": "view",
      "type": "function"
    },
    {
      "inputs": [
        {
          "internalType": "uint256",
          "name": "tokenId",
          "type": "uint256"
        }
      ],
      "name": "tokenURI",
      "outputs": [
        {
          "internalType": "string",
          "name": "",
          "type": "string"
        }
      ],
      "stateMutability": "view",
      "type": "function"
    },
    {
      "inputs": [],
      "name": "totalSupply",
      "outputs": [
        {
          "internalType": "uint256",
          "name": "",
          "type": "uint256"
        }
      ],
      "stateMutability": "view",
      "type": "function"
    },
    {
      "inputs": [
        {
          "internalType": "address",
          "name": "from",
          "type": "address"
        },
        {
          "internalType": "address",
          "name": "to",
          "type": "address"
        },
        {
          "internalType": "uint256",
          "name": "tokenId",
          "type": "uint256"
        }
      ],
      "name": "transferFrom",
      "outputs": [],
      "stateMutability": "nonpayable",
      "type": "function"
    },
    {
      "inputs": [
        {
          "internalType": "address",
          "name": "newOwner",
          "type": "address"
        }
      ],
      "name": "transferOwnership",
      "outputs": [],
      "stateMutability": "nonpayable",
      "type": "function"
    }
  ],
  "bytecode": "0x60806040523480156200001157600080fd5b50336040518060400160405280600c81526020016b135bdd1bdc989a5ad953919560a21b81525060405180604001604052806005815260200164135093919560da1b8152508160009081620000679190620001b1565b506001620000768282620001b1565b5050506001600160a01b038116620000a857604051631e4fbdf760e01b81526000600482015260240160405180910390fd5b620000b381620000ba565b506200027d565b600680546001600160a01b038381166001600160a01b0319831681179093556040519116919082907f8be0079c531659141344cd1fd0a4f28419497f9722a3daafe3b4186f6b6457e090600090a35050565b634e487b7160e01b600052604160045260246000fd5b600181811c908216806200013757607f821691505b6020821081036200015857634e487b7160e01b600052602260045260246000fd5b50919050565b601f821115620001ac57600081815260208120601f850160051c81016020861015620001875750805b601f850160051c820191505b81811015620001a85782815560010162000193565b5050505b505050565b81516001600160401b03811115620001cd57620001cd6200010c565b620001e581620001de845462000122565b846200015e565b602080601f8311600181146200021d5760008415620002045750858301515b600019600386901b1c1916600185901b178555620001a8565b600085815260208120601f198616915b828110156200024e578886015182559484019460019091019084016200022d565b50858210156200026d5787850151600019600388901b60f8161c191681555b5050505050600190811b01905550565b611a61806200028d6000396000f3fe608060405234801561001057600080fd5b50600436106101375760003560e01c806370a08231116100b8578063a09b5c131161007c578063a09b5c1314610278578063a22cb46514610298578063b88d4fde146102ab578063c87b56dd146102be578063e985e9c5146102d1578063f2fde38b146102e457600080fd5b806370a082311461023b578063715018a61461024e57806375794a3c146102565780638da5cb5b1461025f57806395d89b411461027057600080fd5b806318160ddd116100ff57806318160ddd146101dd57806323b872dd146101ef57806342842e0e1461020257806362f46d15146102155780636352211e1461022857600080fd5b806301ffc9a71461013c57806306fdde0314610164578063081812fc14610179578063095ea7b3146101a4578063149c9db0146101b9575b600080fd5b61014f61014a3660046113bc565b6102f7565b60405190151581526020015b60405180910390f35b61016c610349565b60405161015b9190611429565b61018c61018736600461143c565b6103db565b6040516001600160a01b03909116815260200161015b565b6101b76101b2366004611471565b610404565b005b6101cc6101c736600461143c565b610413565b60405161015b95949392919061149b565b6008545b60405190815260200161015b565b6101b76101fd3660046114fb565b610661565b6101b76102103660046114fb565b6106f1565b6101b76102233660046115e3565b610711565b61018c61023636600461143c565b6107d7565b6101e16102493660046116a9565b6107e2565b6101b761082a565b6101e160085481565b6006546001600160a01b031661018c565b61016c61083e565b61028b61028636600461143c565b61084d565b60405161015b91906116c4565b6101b76102a6366004611750565b610b48565b6101b76102b936600461178c565b610b53565b61016c6102cc36600461143c565b610b6b565b61014f6102df366004611808565b610be0565b6101b76102f23660046116a9565b610c0e565b60006001600160e01b031982166380ac58cd60e01b148061032857506001600160e01b03198216635b5e139f60e01b145b8061034357506301ffc9a760e01b6001600160e01b03198316145b92915050565b6060600080546103589061183b565b80601f01602080910402602001604051908101604052809291908181526020018280546103849061183b565b80156103d15780601f106103a6576101008083540402835291602001916103d1565b820191906000526020600020905b8154815290600101906020018083116103b457829003601f168201915b5050505050905090565b60006103e682610c4c565b506000828152600460205260409020546001600160a01b0316610343565b61040f828233610c85565b5050565b60076020526000908152604090208054819061042e9061183b565b80601f016020809104026020016040519081016040528092919081815260200182805461045a9061183b565b80156104a75780601f1061047c576101008083540402835291602001916104a7565b820191906000526020600020905b81548152906001019060200180831161048a57829003601f168201915b5050505050908060010180546104bc9061183b565b80601f01602080910402602001604051908101604052809291908181526020018280546104e89061183b565b80156105355780601f1061050a57610100808354040283529160200191610535565b820191906000526020600020905b81548152906001019060200180831161051857829003601f168201915b50505050509080600201805461054a9061183b565b80601f01602080910402602001604051908101604052809291908181526020018280546105769061183b565b80156105c35780601f10610598576101008083540402835291602001916105c3565b820191906000526020600020905b8154815290600101906020018083116105a657829003601f168201915b5050505050908060030180546105d89061183b565b80601f01602080910402602001604051908101604052809291908181526020018280546106049061183b565b80156106515780601f1061062657610100808354040283529160200191610651565b820191906000526020600020905b81548152906001019060200180831161063457829003601f168201915b5050505050908060040154905085565b6001600160a01b03821661069057604051633250574960e11b8152600060048201526024015b60405180910390fd5b600061069d838333610c92565b9050836001600160a01b0316816001600160a01b0316146106eb576040516364283d7b60e01b81526001600160a01b0380861660048301526024820184905282166044820152606401610687565b50505050565b61070c83838360405180602001604052806000815250610b53565b505050565b610719610d8b565b6040805160a0810182528681526020808201879052818301869052606082018590526080820184905260085460009081526007909152919091208151819061076190826118bb565b506020820151600182019061077690826118bb565b506040820151600282019061078b90826118bb565b50606082015160038201906107a090826118bb565b50608082015181600401559050506107ba86600854610db8565b600880549060006107ca8361197b565b9190505550505050505050565b600061034382610c4c565b60006001600160a01b03821661080e576040516322718ad960e21b815260006004820152602401610687565b506001600160a01b031660009081526003602052604090205490565b610832610d8b565b61083c6000610dd2565b565b6060600180546103589061183b565b61087f6040518060a0016040528060608152602001606081526020016060815260200160608152602001600081525090565b600061088a836107d7565b6001600160a01b0316036108d75760405162461bcd60e51b8152602060048201526014602482015273151bdad95b88191bd95cc81b9bdd08195e1a5cdd60621b6044820152606401610687565b60008281526007602052604090819020815160a081019092528054829082906108ff9061183b565b80601f016020809104026020016040519081016040528092919081815260200182805461092b9061183b565b80156109785780601f1061094d57610100808354040283529160200191610978565b820191906000526020600020905b81548152906001019060200180831161095b57829003601f168201915b505050505081526020016001820180546109919061183b565b80601f01602080910402602001604051908101604052809291908181526020018280546109bd9061183b565b8015610a0a5780601f106109df57610100808354040283529160200191610a0a565b820191906000526020600020905b8154815290600101906020018083116109ed57829003601f168201915b50505050508152602001600282018054610a239061183b565b80601f0160208091040260200160405190810160405280929190818152602001828054610a4f9061183b565b8015610a9c5780601f10610a7157610100808354040283529160200191610a9c565b820191906000526020600020905b815481529060010190602001808311610a7f57829003601f168201915b50505050508152602001600382018054610ab59061183b565b80601f0160208091040260200160405190810160405280929190818152602001828054610ae19061183b565b8015610b2e5780601f10610b0357610100808354040283529160200191610b2e565b820191906000526020600020905b815481529060010190602001808311610b1157829003601f168201915b505050505081526020016004820154815250509050919050565b61040f338383610e24565b610b5e848484610661565b6106eb3385858585610ec3565b6060610b7682610c4c565b506000610b8e60408051602081019091526000815290565b90506000815111610bae5760405180602001604052806000815250610bd9565b80610bb884610fee565b604051602001610bc99291906119a2565b6040516020818303038152906040525b9392505050565b6001600160a01b03918216600090815260056020908152604080832093909416825291909152205460ff1690565b610c16610d8b565b6001600160a01b038116610c4057604051631e4fbdf760e01b815260006004820152602401610687565b610c4981610dd2565b50565b6000818152600260205260408120546001600160a01b03168061034357604051637e27328960e01b815260048101849052602401610687565b61070c8383836001611081565b6000828152600260205260408120546001600160a01b0390811690831615610cbf57610cbf818486611187565b6001600160a01b03811615610cfd57610cdc600085600080611081565b6001600160a01b038116600090815260036020526040902080546000190190555b6001600160a01b03851615610d2c576001600160a01b0385166000908152600360205260409020805460010190555b60008481526002602052604080822080546001600160a01b0319166001600160a01b0389811691821790925591518793918516917fddf252ad1be2c89b69c2b068fc378daa952ba7f163c4a11628f55a4df523b3ef91a4949350505050565b6006546001600160a01b0316331461083c5760405163118cdaa760e01b8152336004820152602401610687565b61040f8282604051806020016040528060008152506111eb565b600680546001600160a01b038381166001600160a01b0319831681179093556040519116919082907f8be0079c531659141344cd1fd0a4f28419497f9722a3daafe3b4186f6b6457e090600090a35050565b6001600160a01b038216610e5657604051630b61174360e31b81526001600160a01b0383166004820152602401610687565b6001600160a01b03838116600081815260056020908152604080832094871680845294825291829020805460ff191686151590811790915591519182527f17307eab39ab6107e8899845ad3d59bd9653f200f220920489ca2b5937696c31910160405180910390a3505050565b6001600160a01b0383163b15610fe757604051630a85bd0160e11b81526001600160a01b0384169063150b7a0290610f059088908890879087906004016119d1565b6020604051808303816000875af1925050508015610f40575060408051601f3d908101601f19168201909252610f3d91810190611a0e565b60015b610fa9573d808015610f6e576040519150601f19603f3d011682016040523d82523d6000602084013e610f73565b606091505b508051600003610fa157604051633250574960e11b81526001600160a01b0385166004820152602401610687565b805160208201fd5b6001600160e01b03198116630a85bd0160e11b14610fe557604051633250574960e11b81526001600160a01b0385166004820152602401610687565b505b5050505050565b60606000610ffb83611203565b600101905060008167ffffffffffffffff81111561101b5761101b611537565b6040519080825280601f01601f191660200182016040528015611045576020820181803683370190505b5090508181016020015b600019016f181899199a1a9b1b9c1cb0b131b232b360811b600a86061a8153600a850494508461104f57509392505050565b808061109557506001600160a01b03821615155b156111575760006110a584610c4c565b90506001600160a01b038316158015906110d15750826001600160a01b0316816001600160a01b031614155b80156110e457506110e28184610be0565b155b1561110d5760405163a9fbf51f60e01b81526001600160a01b0384166004820152602401610687565b81156111555783856001600160a01b0316826001600160a01b03167f8c5be1e5ebec7d5bd14f71427d1e84f3dd0314c0f7b2291e5b200ac8c7c3b92560405160405180910390a45b505b5050600090815260046020526040902080546001600160a01b0319166001600160a01b0392909216919091179055565b6111928383836112db565b61070c576001600160a01b0383166111c057604051637e27328960e01b815260048101829052602401610687565b60405163177e802f60e01b81526001600160a01b038316600482015260248101829052604401610687565b6111f58383611341565b61070c336000858585610ec3565b60008072184f03e93ff9f4daa797ed6e38ed64bf6a1f0160401b83106112425772184f03e93ff9f4daa797ed6e38ed64bf6a1f0160401b830492506040015b6d04ee2d6d415b85acef8100000000831061126e576d04ee2d6d415b85acef8100000000830492506020015b662386f26fc10000831061128c57662386f26fc10000830492506010015b6305f5e10083106112a4576305f5e100830492506008015b61271083106112b857612710830492506004015b606483106112ca576064830492506002015b600a83106103435760010192915050565b60006001600160a01b038316158015906113395750826001600160a01b0316846001600160a01b0316148061131557506113158484610be0565b8061133957506000828152600460205260409020546001600160a01b038481169116145b949350505050565b6001600160a01b03821661136b57604051633250574960e11b815260006004820152602401610687565b600061137983836000610c92565b90506001600160a01b0381161561070c576040516339e3563760e11b815260006004820152602401610687565b6001600160e01b031981168114610c4957600080fd5b6000602082840312156113ce57600080fd5b8135610bd9816113a6565b60005b838110156113f45781810151838201526020016113dc565b50506000910152565b600081518084526114158160208601602086016113d9565b601f01601f19169290920160200192915050565b602081526000610bd960208301846113fd565b60006020828403121561144e57600080fd5b5035919050565b80356001600160a01b038116811461146c57600080fd5b919050565b6000806040838503121561148457600080fd5b61148d83611455565b946020939093013593505050565b60a0815260006114ae60a08301886113fd565b82810360208401526114c081886113fd565b905082810360408401526114d481876113fd565b905082810360608401526114e881866113fd565b9150508260808301529695505050505050565b60008060006060848603121561151057600080fd5b61151984611455565b925061152760208501611455565b9150604084013590509250925092565b634e487b7160e01b600052604160045260246000fd5b600067ffffffffffffffff8084111561156857611568611537565b604051601f8501601f19908116603f0116810190828211818310171561159057611590611537565b816040528093508581528686860111156115a957600080fd5b858560208301376000602087830101525050509392505050565b600082601f8301126115d457600080fd5b610bd98383356020850161154d565b60008060008060008060c087890312156115fc57600080fd5b61160587611455565b9550602087013567ffffffffffffffff8082111561162257600080fd5b61162e8a838b016115c3565b9650604089013591508082111561164457600080fd5b6116508a838b016115c3565b9550606089013591508082111561166657600080fd5b6116728a838b016115c3565b9450608089013591508082111561168857600080fd5b5061169589828a016115c3565b92505060a087013590509295509295509295565b6000602082840312156116bb57600080fd5b610bd982611455565b602081526000825160a060208401526116e060c08401826113fd565b90506020840151601f19808584030160408601526116fe83836113fd565b9250604086015191508085840301606086015261171b83836113fd565b925060608601519150808584030160808601525061173982826113fd565b915050608084015160a08401528091505092915050565b6000806040838503121561176357600080fd5b61176c83611455565b91506020830135801515811461178157600080fd5b809150509250929050565b600080600080608085870312156117a257600080fd5b6117ab85611455565b93506117b960208601611455565b925060408501359150606085013567ffffffffffffffff8111156117dc57600080fd5b8501601f810187136117ed57600080fd5b6117fc8782356020840161154d565b91505092959194509250565b6000806040838503121561181b57600080fd5b61182483611455565b915061183260208401611455565b90509250929050565b600181811c9082168061184f57607f821691505b60208210810361186f57634e487b7160e01b600052602260045260246000fd5b50919050565b601f82111561070c57600081815260208120601f850160051c8101602086101561189c5750805b601f850160051c820191505b81811015610fe5578281556001016118a8565b815167ffffffffffffffff8111156118d5576118d5611537565b6118e9816118e3845461183b565b84611875565b602080601f83116001811461191e57600084156119065750858301515b600019600386901b1c1916600185901b178555610fe5565b600085815260208120601f198616915b8281101561194d5788860151825594840194600190910190840161192e565b508582101561196b5787850151600019600388901b60f8161c191681555b5050505050600190811b01905550565b60006001820161199b57634e487b7160e01b600052601160045260246000fd5b5060010190565b600083516119b48184602088016113d9565b8351908301906119c88183602088016113d9565b01949350505050565b6001600160a01b0385811682528416602082015260408101839052608060608201819052600090611a04908301846113fd565b9695505050505050565b600060208284031215611a2057600080fd5b8151610bd9816113a656fea26469706673582212203e292f2a7848a16dbf36dde9ab89fc16581241b5396c7c0a0b0bb4a535a76f1464736f6c63430008140033",
  "linkReferences": {},
  "deployedLinkReferences": {}
}