{
  "_format": "hh-sol-artifact-1",
  "contractName": "MotorbikeNFT",
  "sourceName": "contracts/MotorbikeNFT.sol",
  "abi": [
    {
      "inputs": [],
      "stateMutability": "nonpayable",
      "type": "constructor"
    },
    {
      "inputs": [
        {
          "internalType": "address",
          "name": "sender",
          "type": "address"
        },
        {
          "internalType": "uint256",
          "name": "tokenId",
          "type": "uint256"
        },
        {
          "internalType": "address",
          "name": "owner",
          "type": "address"
        }
      ],
      "name": "ERC721IncorrectOwner",
      "type": "error"
    },
    {
      "inputs": [
        {
          "internalType": "address",
          "name": "operator",
          "type": "address"
        },
        {
          "internalType": "uint256",
          "name": "tokenId",
          "type": "uint256"
        }
      ],
      "name": "ERC721InsufficientApproval",
      "type": "error"
    },
    {
      "inputs": [
        {
          "internalType": "address",
          "name": "approver",
          "type": "address"
        }
      ],
      "name": "ERC721InvalidApprover",
      "type": "error"
    },
    {
      "inputs": [
        {
          "internalType": "address",
          "name": "operator",
          "type": "address"
        }
      ],
      "name": "ERC721InvalidOperator",
      "type": "error"
    },
    {
      "inputs": [
        {
          "internalType": "address",
          "name": "owner",
          "type": "address"
        }
      ],
      "name": "ERC721InvalidOwner",
      "type": "error"
    },
    {
      "inputs": [
        {
          "internalType": "address",
          "name": "receiver",
          "type": "address"
        }
      ],
      "name": "ERC721InvalidReceiver",
      "type": "error"
    },
    {
      "inputs": [
        {
          "internalType": "address",
          "name": "sender",
          "type": "address"
        }
      ],
      "name": "ERC721InvalidSender",
      "type": "error"
    },
    {
      "inputs": [
        {
          "internalType": "uint256",
          "name": "tokenId",
          "type": "uint256"
        }
      ],
      "name": "ERC721NonexistentToken",
      "type": "error"
    },
    {
      "inputs": [
        {
          "internalType": "address",
          "name": "owner",
          "type": "address"
        }
      ],
      "name": "OwnableInvalidOwner",
      "type": "error"
    },
    {
      "inputs": [
        {
          "internalType": "address",
          "name": "account",
          "type": "address"
        }
      ],
      "name": "OwnableUnauthorizedAccount",
      "type": "error"
    },
    {
      "anonymous": false,
      "inputs": [
        {
          "indexed": true,
          "internalType": "address",
          "name": "owner",
          "type": "address"
        },
        {
          "indexed": true,
          "internalType": "address",
          "name": "approved",
          "type": "address"
        },
        {
          "indexed": true,
          "internalType": "uint256",
          "name": "tokenId",
          "type": "uint256"
        }
      ],
      "name": "Approval",
      "type": "event"
    },
    {
      "anonymous": false,
      "inputs": [
        {
          "indexed": true,
          "internalType": "address",
          "name": "owner",
          "type": "address"
        },
        {
          "indexed": true,
          "internalType": "address",
          "name": "operator",
          "type": "address"
        },
        {
          "indexed": false,
          "internalType": "bool",
          "name": "approved",
          "type": "bool"
        }
      ],
      "name": "ApprovalForAll",
      "type": "event"
    },
    {
      "anonymous": false,
      "inputs": [
        {
          "indexed": true,
          "internalType": "address",
          "name": "previousOwner",
          "type": "address"
        },
        {
          "indexed": true,
          "internalType": "address",
          "name": "newOwner",
          "type": "address"
        }
      ],
      "name": "OwnershipTransferred",
      "type": "event"
    },
    {
      "anonymous": false,
      "inputs": [
        {
          "indexed": true,
          "internalType": "address",
          "name": "from",
          "type": "address"
        },
        {
          "indexed": true,
          "internalType": "address",
          "name": "to",
          "type": "address"
        },
        {
          "indexed": true,
          "internalType": "uint256",
          "name": "tokenId",
          "type": "uint256"
        }
      ],
      "name": "Transfer",
      "type": "event"
    },
    {
      "inputs": [
        {
          "internalType": "address",
          "name": "to",
          "type": "address"
        },
        {
          "internalType": "uint256",
          "name": "tokenId",
          "type": "uint256"
        }
      ],
      "name": "approve",
      "outputs": [],
      "stateMutability": "nonpayable",
      "type": "function"
    },
    {
      "inputs": [
        {
          "internalType": "address",
          "name": "owner",
          "type": "address"
        }
      ],
      "name": "balanceOf",
      "outputs": [
        {
          "internalType": "uint256",
          "name": "",
          "type": "uint256"
        }
      ],
      "stateMutability": "view",
      "type": "function"
    },
    {
      "inputs": [
        {
          "internalType": "uint256",
          "name": "tokenId",
          "type": "uint256"
        }
      ],
      "name": "getApproved",
      "outputs": [
        {
          "internalType": "address",
          "name": "",
          "type": "address"
        }
      ],
      "stateMutability": "view",
      "type": "function"
    },
    {
      "inputs": [
        {
          "internalType": "uint256",
          "name": "tokenId",
          "type": "uint256"
        }
      ],
      "name": "getMotorbike",
      "outputs": [
        {
          "components": [
            {
              "internalType": "string",
              "name": "vin",
              "type": "string"
            },
            {
              "internalType": "string",
              "name": "engineNumber",
              "type": "string"
            },
            {
              "internalType": "string",
              "name": "model",
              "type": "string"
            },
            {
              "internalType": "string",
              "name": "color",
              "type": "string"
            },
            {
              "internalType": "uint256",
              "name": "year",
              "type": "uint256"
            }
          ],
          "internalType": "struct MotorbikeNFT.Motorbike",
          "name": "",
          "type": "tuple"
        }
      ],
      "stateMutability": "view",
      "type": "function"
    },
    {
      "inputs": [
        {
          "internalType": "address",
          "name": "owner",
          "type": "address"
        },
        {
          "internalType": "address",
          "name": "operator",
          "type": "address"
        }
      ],
      "name": "isApprovedForAll",
      "outputs": [
        {
          "internalType": "bool",
          "name": "",
          "type": "bool"
        }
      ],
      "stateMutability": "view",
      "type": "function"
    },
    {
      "inputs": [
        {
          "internalType": "address",
          "name": "to",
          "type": "address"
        },
        {
          "internalType": "string",
          "name": "vin",
          "type": "string"
        },
        {
          "internalType": "string",
          "name": "engineNumber",
          "type": "string"
        },
        {
          "internalType": "string",
          "name": "model",
          "type": "string"
        },
        {
          "internalType": "string",
          "name": "color",
          "type": "string"
        },
        {
          "internalType": "uint256",
          "name": "year",
          "type": "uint256"
        }
      ],
      "name": "mint",
      "outputs": [],
      "stateMutability": "nonpayable",
      "type": "function"
    },
    {
      "inputs": [
        {
          "internalType": "uint256",
          "name": "",
          "type": "uint256"
        }
      ],
      "name": "motorbikes",
      "outputs": [
        {
          "internalType": "string",
          "name": "vin",
          "type": "string"
        },
        {
          "internalType": "string",
          "name": "engineNumber",
          "type": "string"
        },
        {
          "internalType": "string",
          "name": "model",
          "type": "string"
        },
        {
          "internalType": "string",
          "name": "color",
          "type": "string"
        },
        {
          "internalType": "uint256",
          "name": "year",
          "type": "uint256"
        }
      ],
      "stateMutability": "view",
      "type": "function"
    },
    {
      "inputs": [],
      "name": "name",
      "outputs": [
        {
          "internalType": "string",
          "name": "",
          "type": "string"
        }
      ],
      "stateMutability": "view",
      "type": "function"
    },
    {
      "inputs": [],
      "name": "nextTokenId",
      "outputs": [
        {
          "internalType": "uint256",
          "name": "",
          "type": "uint256"
        }
      ],
      "stateMutability": "view",
      "type": "function"
    },
    {
      "inputs": [],
      "name": "owner",
      "outputs": [
        {
          "internalType": "address",
          "name": "",
          "type": "address"
        }
      ],
      "stateMutability": "view",
      "type": "function"
    },
    {
      "inputs": [
        {
          "internalType": "uint256",
          "name": "tokenId",
          "type": "uint256"
        }
      ],
      "name": "ownerOf",
      "outputs": [
        {
          "internalType": "address",
          "name": "",
          "type": "address"
        }
      ],
      "stateMutability": "view",
      "type": "function"
    },
    {
      "inputs": [],
      "name": "renounceOwnership",
      "outputs": [],
      "stateMutability": "nonpayable",
      "type": "function"
    },
    {
      "inputs": [
        {
          "internalType": "address",
          "name": "from",
          "type": "address"
        },
        {
          "internalType": "address",
          "name": "to",
          "type": "address"
        },
        {
          "internalType": "uint256",
          "name": "tokenId",
          "type": "uint256"
        }
      ],
      "name": "safeTransferFrom",
      "outputs": [],
      "stateMutability": "nonpayable",
      "type": "function"
    },
    {
      "inputs": [
        {
          "internalType": "address",
          "name": "from",
          "type": "address"
        },
        {
          "internalType": "address",
          "name": "to",
          "type": "address"
        },
        {
          "internalType": "uint256",
          "name": "tokenId",
          "type": "uint256"
        },
        {
          "internalType": "bytes",
          "name": "data",
          "type": "bytes"
        }
      ],
      "name": "safeTransferFrom",
      "outputs": [],
      "stateMutability": "nonpayable",
      "type": "function"
    },
    {
      "inputs": [
        {
          "internalType": "address",
          "name": "operator",
          "type": "address"
        },
        {
          "internalType": "bool",
          "name": "approved",
          "type": "bool"
        }
      ],
      "name": "setApprovalForAll",
      "outputs": [],
      "stateMutability": "nonpayable",
      "type": "function"
    },
    {
      "inputs": [
        {
          "internalType": "bytes4",
          "name": "interfaceId",
          "type": "bytes4"
        }
      ],
      "name": "supportsInterface",
      "outputs": [
        {
          "internalType": "bool",
          "name": "",
          "type": "bool"
        }
      ],
      "stateMutability": "view",
      "type": "function"
    },
    {
      "inputs": [],
      "name": "symbol",
      "outputs": [
        {
          "internalType": "string",
          "name": "",
          "type": "string"
        }
      ],
      "stateMutability": "view",
      "type": "function"
    },
    {
      "inputs": [
        {
          "internalType": "uint256",
          "name": "tokenId",
          "type": "uint256"
        }
      ],
      "name": "tokenURI",
      "outputs": [
        {
          "internalType": "string",
          "name": "",
          "type": "string"
        }
      ],
      "stateMutability": "view",
      "type": "function"
    },
    {
      "inputs": [
        {
          "internalType": "address",
          "name": "from",
          "type": "address"
        },
        {
          "internalType": "address",
          "name": "to",
          "type": "address"
        },
        {
          "internalType": "uint256",
          "name": "tokenId",
          "type": "uint256"
        }
      ],
      "name": "transferFrom",
      "outputs": [],
      "stateMutability": "nonpayable",
      "type": "function"
    },
    {
      "inputs": [
        {
          "internalType": "address",
          "name": "newOwner",
          "type": "address"
        }
      ],
      "name": "transferOwnership",
      "outputs": [],
      "stateMutability": "nonpayable",
      "type": "function"
    }
  ],
  "bytecode": "0x60806040523480156200001157600080fd5b50336040518060400160405280600c81526020017f4d6f746f7262696b654e465400000000000000000000000000000000000000008152506040518060400160405280600581526020017f4d424e4654000000000000000000000000000000000000000000000000000000815250816000908162000090919062000472565b508060019081620000a2919062000472565b505050600073ffffffffffffffffffffffffffffffffffffffff168173ffffffffffffffffffffffffffffffffffffffff16036200011a5760006040517f1e4fbdf70000000000000000000000000000000000000000000000000000000081526004016200011191906200059e565b60405180910390fd5b6200012b816200013260201b60201c565b50620005bb565b6000600660009054906101000a900473ffffffffffffffffffffffffffffffffffffffff16905081600660006101000a81548173ffffffffffffffffffffffffffffffffffffffff021916908373ffffffffffffffffffffffffffffffffffffffff1602179055508173ffffffffffffffffffffffffffffffffffffffff168173ffffffffffffffffffffffffffffffffffffffff167f8be0079c531659141344cd1fd0a4f28419497f9722a3daafe3b4186f6b6457e060405160405180910390a35050565b600081519050919050565b7f4e487b7100000000000000000000000000000000000000000000000000000000600052604160045260246000fd5b7f4e487b7100000000000000000000000000000000000000000000000000000000600052602260045260246000fd5b600060028204905060018216806200027a57607f821691505b60208210810362000290576200028f62000232565b5b50919050565b60008190508160005260206000209050919050565b60006020601f8301049050919050565b600082821b905092915050565b600060088302620002fa7fffffffffffffffffffffffffffffffffffffffffffffffffffffffffffffffff82620002bb565b620003068683620002bb565b95508019841693508086168417925050509392505050565b6000819050919050565b6000819050919050565b6000620003536200034d62000347846200031e565b62000328565b6200031e565b9050919050565b6000819050919050565b6200036f8362000332565b620003876200037e826200035a565b848454620002c8565b825550505050565b600090565b6200039e6200038f565b620003ab81848462000364565b505050565b5b81811015620003d357620003c760008262000394565b600181019050620003b1565b5050565b601f8211156200042257620003ec8162000296565b620003f784620002ab565b8101602085101562000407578190505b6200041f6200041685620002ab565b830182620003b0565b50505b505050565b600082821c905092915050565b6000620004476000198460080262000427565b1980831691505092915050565b600062000462838362000434565b9150826002028217905092915050565b6200047d82620001f8565b67ffffffffffffffff81111562000499576200049862000203565b5b620004a5825462000261565b620004b2828285620003d7565b600060209050601f831160018114620004ea5760008415620004d5578287015190505b620004e1858262000454565b86555062000551565b601f198416620004fa8662000296565b60005b828110156200052457848901518255600182019150602085019450602081019050620004fd565b8683101562000544578489015162000540601f89168262000434565b8355505b6001600288020188555050505b505050505050565b600073ffffffffffffffffffffffffffffffffffffffff82169050919050565b6000620005868262000559565b9050919050565b620005988162000579565b82525050565b6000602082019050620005b560008301846200058d565b92915050565b612dd380620005cb6000396000f3fe608060405234801561001057600080fd5b506004361061012c5760003560e01c8063715018a6116100ad578063a22cb46511610071578063a22cb46514610347578063b88d4fde14610363578063c87b56dd1461037f578063e985e9c5146103af578063f2fde38b146103df5761012c565b8063715018a6146102b357806375794a3c146102bd5780638da5cb5b146102db57806395d89b41146102f9578063a09b5c13146103175761012c565b806323b872dd116100f457806323b872dd146101ff57806342842e0e1461021b57806362f46d15146102375780636352211e1461025357806370a08231146102835761012c565b806301ffc9a71461013157806306fdde0314610161578063081812fc1461017f578063095ea7b3146101af578063149c9db0146101cb575b600080fd5b61014b60048036038101906101469190611fa9565b6103fb565b6040516101589190611ff1565b60405180910390f35b6101696104dd565b604051610176919061209c565b60405180910390f35b610199600480360381019061019491906120f4565b61056f565b6040516101a69190612162565b60405180910390f35b6101c960048036038101906101c491906121a9565b61058b565b005b6101e560048036038101906101e091906120f4565b6105a1565b6040516101f69594939291906121f8565b60405180910390f35b61021960048036038101906102149190612267565b6107f7565b005b61023560048036038101906102309190612267565b6108f9565b005b610251600480360381019061024c91906123ef565b610919565b005b61026d600480360381019061026891906120f4565b6109ee565b60405161027a9190612162565b60405180910390f35b61029d600480360381019061029891906124ec565b610a00565b6040516102aa9190612519565b60405180910390f35b6102bb610aba565b005b6102c5610ace565b6040516102d29190612519565b60405180910390f35b6102e3610ad4565b6040516102f09190612162565b60405180910390f35b610301610afe565b60405161030e919061209c565b60405180910390f35b610331600480360381019061032c91906120f4565b610b90565b60405161033e9190612618565b60405180910390f35b610361600480360381019061035c9190612666565b610e86565b005b61037d60048036038101906103789190612747565b610e9c565b005b610399600480360381019061039491906120f4565b610ec1565b6040516103a6919061209c565b60405180910390f35b6103c960048036038101906103c491906127ca565b610f2a565b6040516103d69190611ff1565b60405180910390f35b6103f960048036038101906103f491906124ec565b610fbe565b005b60007f80ac58cd000000000000000000000000000000000000000000000000000000007bffffffffffffffffffffffffffffffffffffffffffffffffffffffff1916827bffffffffffffffffffffffffffffffffffffffffffffffffffffffff191614806104c657507f5b5e139f000000000000000000000000000000000000000000000000000000007bffffffffffffffffffffffffffffffffffffffffffffffffffffffff1916827bffffffffffffffffffffffffffffffffffffffffffffffffffffffff1916145b806104d657506104d582611044565b5b9050919050565b6060600080546104ec90612839565b80601f016020809104026020016040519081016040528092919081815260200182805461051890612839565b80156105655780601f1061053a57610100808354040283529160200191610565565b820191906000526020600020905b81548152906001019060200180831161054857829003601f168201915b5050505050905090565b600061057a826110ae565b5061058482611136565b9050919050565b61059d8282610598611173565b61117b565b5050565b60076020528060005260406000206000915090508060000180546105c490612839565b80601f01602080910402602001604051908101604052809291908181526020018280546105f090612839565b801561063d5780601f106106125761010080835404028352916020019161063d565b820191906000526020600020905b81548152906001019060200180831161062057829003601f168201915b50505050509080600101805461065290612839565b80601f016020809104026020016040519081016040528092919081815260200182805461067e90612839565b80156106cb5780601f106106a0576101008083540402835291602001916106cb565b820191906000526020600020905b8154815290600101906020018083116106ae57829003601f168201915b5050505050908060020180546106e090612839565b80601f016020809104026020016040519081016040528092919081815260200182805461070c90612839565b80156107595780601f1061072e57610100808354040283529160200191610759565b820191906000526020600020905b81548152906001019060200180831161073c57829003601f168201915b50505050509080600301805461076e90612839565b80601f016020809104026020016040519081016040528092919081815260200182805461079a90612839565b80156107e75780601f106107bc576101008083540402835291602001916107e7565b820191906000526020600020905b8154815290600101906020018083116107ca57829003601f168201915b5050505050908060040154905085565b600073ffffffffffffffffffffffffffffffffffffffff168273ffffffffffffffffffffffffffffffffffffffff16036108695760006040517f64a0ae920000000000000000000000000000000000000000000000000000000081526004016108609190612162565b60405180910390fd5b600061087d8383610878611173565b61118d565b90508373ffffffffffffffffffffffffffffffffffffffff168173ffffffffffffffffffffffffffffffffffffffff16146108f3578382826040517f64283d7b0000000000000000000000000000000000000000000000000000000081526004016108ea9392919061286a565b60405180910390fd5b50505050565b61091483838360405180602001604052806000815250610e9c565b505050565b6109216113a7565b6040518060a001604052808681526020018581526020018481526020018381526020018281525060076000600854815260200190815260200160002060008201518160000190816109729190612a4d565b5060208201518160010190816109889190612a4d565b50604082015181600201908161099e9190612a4d565b5060608201518160030190816109b49190612a4d565b50608082015181600401559050506109ce8660085461142e565b600860008154809291906109e190612b4e565b9190505550505050505050565b60006109f9826110ae565b9050919050565b60008073ffffffffffffffffffffffffffffffffffffffff168273ffffffffffffffffffffffffffffffffffffffff1603610a735760006040517f89c62b64000000000000000000000000000000000000000000000000000000008152600401610a6a9190612162565b60405180910390fd5b600360008373ffffffffffffffffffffffffffffffffffffffff1673ffffffffffffffffffffffffffffffffffffffff168152602001908152602001600020549050919050565b610ac26113a7565b610acc600061144c565b565b60085481565b6000600660009054906101000a900473ffffffffffffffffffffffffffffffffffffffff16905090565b606060018054610b0d90612839565b80601f0160208091040260200160405190810160405280929190818152602001828054610b3990612839565b8015610b865780601f10610b5b57610100808354040283529160200191610b86565b820191906000526020600020905b815481529060010190602001808311610b6957829003601f168201915b5050505050905090565b610b98611f0e565b600073ffffffffffffffffffffffffffffffffffffffff16610bb9836109ee565b73ffffffffffffffffffffffffffffffffffffffff1603610c0f576040517f08c379a0000000000000000000000000000000000000000000000000000000008152600401610c0690612be2565b60405180910390fd5b600760008381526020019081526020016000206040518060a0016040529081600082018054610c3d90612839565b80601f0160208091040260200160405190810160405280929190818152602001828054610c6990612839565b8015610cb65780601f10610c8b57610100808354040283529160200191610cb6565b820191906000526020600020905b815481529060010190602001808311610c9957829003601f168201915b50505050508152602001600182018054610ccf90612839565b80601f0160208091040260200160405190810160405280929190818152602001828054610cfb90612839565b8015610d485780601f10610d1d57610100808354040283529160200191610d48565b820191906000526020600020905b815481529060010190602001808311610d2b57829003601f168201915b50505050508152602001600282018054610d6190612839565b80601f0160208091040260200160405190810160405280929190818152602001828054610d8d90612839565b8015610dda5780601f10610daf57610100808354040283529160200191610dda565b820191906000526020600020905b815481529060010190602001808311610dbd57829003601f168201915b50505050508152602001600382018054610df390612839565b80601f0160208091040260200160405190810160405280929190818152602001828054610e1f90612839565b8015610e6c5780601f10610e4157610100808354040283529160200191610e6c565b820191906000526020600020905b815481529060010190602001808311610e4f57829003601f168201915b505050505081526020016004820154815250509050919050565b610e98610e91611173565b8383611512565b5050565b610ea78484846107f7565b610ebb610eb2611173565b85858585611681565b50505050565b6060610ecc826110ae565b506000610ed7611832565b90506000815111610ef75760405180602001604052806000815250610f22565b80610f0184611849565b604051602001610f12929190612c3e565b6040516020818303038152906040525b915050919050565b6000600560008473ffffffffffffffffffffffffffffffffffffffff1673ffffffffffffffffffffffffffffffffffffffff16815260200190815260200160002060008373ffffffffffffffffffffffffffffffffffffffff1673ffffffffffffffffffffffffffffffffffffffff16815260200190815260200160002060009054906101000a900460ff16905092915050565b610fc66113a7565b600073ffffffffffffffffffffffffffffffffffffffff168173ffffffffffffffffffffffffffffffffffffffff16036110385760006040517f1e4fbdf700000000000000000000000000000000000000000000000000000000815260040161102f9190612162565b60405180910390fd5b6110418161144c565b50565b60007f01ffc9a7000000000000000000000000000000000000000000000000000000007bffffffffffffffffffffffffffffffffffffffffffffffffffffffff1916827bffffffffffffffffffffffffffffffffffffffffffffffffffffffff1916149050919050565b6000806110ba83611917565b9050600073ffffffffffffffffffffffffffffffffffffffff168173ffffffffffffffffffffffffffffffffffffffff160361112d57826040517f7e2732890000000000000000000000000000000000000000000000000000000081526004016111249190612519565b60405180910390fd5b80915050919050565b60006004600083815260200190815260200160002060009054906101000a900473ffffffffffffffffffffffffffffffffffffffff169050919050565b600033905090565b6111888383836001611954565b505050565b60008061119984611917565b9050600073ffffffffffffffffffffffffffffffffffffffff168373ffffffffffffffffffffffffffffffffffffffff16146111db576111da818486611b19565b5b600073ffffffffffffffffffffffffffffffffffffffff168173ffffffffffffffffffffffffffffffffffffffff161461126c5761121d600085600080611954565b6001600360008373ffffffffffffffffffffffffffffffffffffffff1673ffffffffffffffffffffffffffffffffffffffff168152602001908152602001600020600082825403925050819055505b600073ffffffffffffffffffffffffffffffffffffffff168573ffffffffffffffffffffffffffffffffffffffff16146112ef576001600360008773ffffffffffffffffffffffffffffffffffffffff1673ffffffffffffffffffffffffffffffffffffffff168152602001908152602001600020600082825401925050819055505b846002600086815260200190815260200160002060006101000a81548173ffffffffffffffffffffffffffffffffffffffff021916908373ffffffffffffffffffffffffffffffffffffffff160217905550838573ffffffffffffffffffffffffffffffffffffffff168273ffffffffffffffffffffffffffffffffffffffff167fddf252ad1be2c89b69c2b068fc378daa952ba7f163c4a11628f55a4df523b3ef60405160405180910390a4809150509392505050565b6113af611173565b73ffffffffffffffffffffffffffffffffffffffff166113cd610ad4565b73ffffffffffffffffffffffffffffffffffffffff161461142c576113f0611173565b6040517f118cdaa70000000000000000000000000000000000000000000000000000000081526004016114239190612162565b60405180910390fd5b565b611448828260405180602001604052806000815250611bdd565b5050565b6000600660009054906101000a900473ffffffffffffffffffffffffffffffffffffffff16905081600660006101000a81548173ffffffffffffffffffffffffffffffffffffffff021916908373ffffffffffffffffffffffffffffffffffffffff1602179055508173ffffffffffffffffffffffffffffffffffffffff168173ffffffffffffffffffffffffffffffffffffffff167f8be0079c531659141344cd1fd0a4f28419497f9722a3daafe3b4186f6b6457e060405160405180910390a35050565b600073ffffffffffffffffffffffffffffffffffffffff168273ffffffffffffffffffffffffffffffffffffffff160361158357816040517f5b08ba1800000000000000000000000000000000000000000000000000000000815260040161157a9190612162565b60405180910390fd5b80600560008573ffffffffffffffffffffffffffffffffffffffff1673ffffffffffffffffffffffffffffffffffffffff16815260200190815260200160002060008473ffffffffffffffffffffffffffffffffffffffff1673ffffffffffffffffffffffffffffffffffffffff16815260200190815260200160002060006101000a81548160ff0219169083151502179055508173ffffffffffffffffffffffffffffffffffffffff168373ffffffffffffffffffffffffffffffffffffffff167f17307eab39ab6107e8899845ad3d59bd9653f200f220920489ca2b5937696c31836040516116749190611ff1565b60405180910390a3505050565b60008373ffffffffffffffffffffffffffffffffffffffff163b111561182b578273ffffffffffffffffffffffffffffffffffffffff1663150b7a02868685856040518563ffffffff1660e01b81526004016116e09493929190612cb7565b6020604051808303816000875af192505050801561171c57506040513d601f19601f820116820180604052508101906117199190612d18565b60015b6117a0573d806000811461174c576040519150601f19603f3d011682016040523d82523d6000602084013e611751565b606091505b50600081510361179857836040517f64a0ae9200000000000000000000000000000000000000000000000000000000815260040161178f9190612162565b60405180910390fd5b805160208201fd5b63150b7a0260e01b7bffffffffffffffffffffffffffffffffffffffffffffffffffffffff1916817bffffffffffffffffffffffffffffffffffffffffffffffffffffffff19161461182957836040517f64a0ae920000000000000000000000000000000000000000000000000000000081526004016118209190612162565b60405180910390fd5b505b5050505050565b606060405180602001604052806000815250905090565b60606000600161185884611c01565b01905060008167ffffffffffffffff811115611877576118766122c4565b5b6040519080825280601f01601f1916602001820160405280156118a95781602001600182028036833780820191505090505b509050600082602083010190505b60011561190c578080600190039150507f3031323334353637383961626364656600000000000000000000000000000000600a86061a8153600a8581611900576118ff612d45565b5b049450600085036118b7575b819350505050919050565b60006002600083815260200190815260200160002060009054906101000a900473ffffffffffffffffffffffffffffffffffffffff169050919050565b808061198d5750600073ffffffffffffffffffffffffffffffffffffffff168273ffffffffffffffffffffffffffffffffffffffff1614155b15611ac157600061199d846110ae565b9050600073ffffffffffffffffffffffffffffffffffffffff168373ffffffffffffffffffffffffffffffffffffffff1614158015611a0857508273ffffffffffffffffffffffffffffffffffffffff168173ffffffffffffffffffffffffffffffffffffffff1614155b8015611a1b5750611a198184610f2a565b155b15611a5d57826040517fa9fbf51f000000000000000000000000000000000000000000000000000000008152600401611a549190612162565b60405180910390fd5b8115611abf57838573ffffffffffffffffffffffffffffffffffffffff168273ffffffffffffffffffffffffffffffffffffffff167f8c5be1e5ebec7d5bd14f71427d1e84f3dd0314c0f7b2291e5b200ac8c7c3b92560405160405180910390a45b505b836004600085815260200190815260200160002060006101000a81548173ffffffffffffffffffffffffffffffffffffffff021916908373ffffffffffffffffffffffffffffffffffffffff16021790555050505050565b611b24838383611d54565b611bd857600073ffffffffffffffffffffffffffffffffffffffff168373ffffffffffffffffffffffffffffffffffffffff1603611b9957806040517f7e273289000000000000000000000000000000000000000000000000000000008152600401611b909190612519565b60405180910390fd5b81816040517f177e802f000000000000000000000000000000000000000000000000000000008152600401611bcf929190612d74565b60405180910390fd5b505050565b611be78383611e15565b611bfc611bf2611173565b6000858585611681565b505050565b600080600090507a184f03e93ff9f4daa797ed6e38ed64bf6a1f0100000000000000008310611c5f577a184f03e93ff9f4daa797ed6e38ed64bf6a1f0100000000000000008381611c5557611c54612d45565b5b0492506040810190505b6d04ee2d6d415b85acef81000000008310611c9c576d04ee2d6d415b85acef81000000008381611c9257611c91612d45565b5b0492506020810190505b662386f26fc100008310611ccb57662386f26fc100008381611cc157611cc0612d45565b5b0492506010810190505b6305f5e1008310611cf4576305f5e1008381611cea57611ce9612d45565b5b0492506008810190505b6127108310611d19576127108381611d0f57611d0e612d45565b5b0492506004810190505b60648310611d3c5760648381611d3257611d31612d45565b5b0492506002810190505b600a8310611d4b576001810190505b80915050919050565b60008073ffffffffffffffffffffffffffffffffffffffff168373ffffffffffffffffffffffffffffffffffffffff1614158015611e0c57508273ffffffffffffffffffffffffffffffffffffffff168473ffffffffffffffffffffffffffffffffffffffff161480611dcd5750611dcc8484610f2a565b5b80611e0b57508273ffffffffffffffffffffffffffffffffffffffff16611df383611136565b73ffffffffffffffffffffffffffffffffffffffff16145b5b90509392505050565b600073ffffffffffffffffffffffffffffffffffffffff168273ffffffffffffffffffffffffffffffffffffffff1603611e875760006040517f64a0ae92000000000000000000000000000000000000000000000000000000008152600401611e7e9190612162565b60405180910390fd5b6000611e958383600061118d565b9050600073ffffffffffffffffffffffffffffffffffffffff168173ffffffffffffffffffffffffffffffffffffffff1614611f095760006040517f73c6ac6e000000000000000000000000000000000000000000000000000000008152600401611f009190612162565b60405180910390fd5b505050565b6040518060a0016040528060608152602001606081526020016060815260200160608152602001600081525090565b6000604051905090565b600080fd5b600080fd5b60007fffffffff0000000000000000000000000000000000000000000000000000000082169050919050565b611f8681611f51565b8114611f9157600080fd5b50565b600081359050611fa381611f7d565b92915050565b600060208284031215611fbf57611fbe611f47565b5b6000611fcd84828501611f94565b91505092915050565b60008115159050919050565b611feb81611fd6565b82525050565b60006020820190506120066000830184611fe2565b92915050565b600081519050919050565b600082825260208201905092915050565b60005b8381101561204657808201518184015260208101905061202b565b60008484015250505050565b6000601f19601f8301169050919050565b600061206e8261200c565b6120788185612017565b9350612088818560208601612028565b61209181612052565b840191505092915050565b600060208201905081810360008301526120b68184612063565b905092915050565b6000819050919050565b6120d1816120be565b81146120dc57600080fd5b50565b6000813590506120ee816120c8565b92915050565b60006020828403121561210a57612109611f47565b5b6000612118848285016120df565b91505092915050565b600073ffffffffffffffffffffffffffffffffffffffff82169050919050565b600061214c82612121565b9050919050565b61215c81612141565b82525050565b60006020820190506121776000830184612153565b92915050565b61218681612141565b811461219157600080fd5b50565b6000813590506121a38161217d565b92915050565b600080604083850312156121c0576121bf611f47565b5b60006121ce85828601612194565b92505060206121df858286016120df565b9150509250929050565b6121f2816120be565b82525050565b600060a08201905081810360008301526122128188612063565b905081810360208301526122268187612063565b9050818103604083015261223a8186612063565b9050818103606083015261224e8185612063565b905061225d60808301846121e9565b9695505050505050565b6000806000606084860312156122805761227f611f47565b5b600061228e86828701612194565b935050602061229f86828701612194565b92505060406122b0868287016120df565b9150509250925092565b600080fd5b600080fd5b7f4e487b7100000000000000000000000000000000000000000000000000000000600052604160045260246000fd5b6122fc82612052565b810181811067ffffffffffffffff8211171561231b5761231a6122c4565b5b80604052505050565b600061232e611f3d565b905061233a82826122f3565b919050565b600067ffffffffffffffff82111561235a576123596122c4565b5b61236382612052565b9050602081019050919050565b82818337600083830152505050565b600061239261238d8461233f565b612324565b9050828152602081018484840111156123ae576123ad6122bf565b5b6123b9848285612370565b509392505050565b600082601f8301126123d6576123d56122ba565b5b81356123e684826020860161237f565b91505092915050565b60008060008060008060c0878903121561240c5761240b611f47565b5b600061241a89828a01612194565b965050602087013567ffffffffffffffff81111561243b5761243a611f4c565b5b61244789828a016123c1565b955050604087013567ffffffffffffffff81111561246857612467611f4c565b5b61247489828a016123c1565b945050606087013567ffffffffffffffff81111561249557612494611f4c565b5b6124a189828a016123c1565b935050608087013567ffffffffffffffff8111156124c2576124c1611f4c565b5b6124ce89828a016123c1565b92505060a06124df89828a016120df565b9150509295509295509295565b60006020828403121561250257612501611f47565b5b600061251084828501612194565b91505092915050565b600060208201905061252e60008301846121e9565b92915050565b600082825260208201905092915050565b60006125508261200c565b61255a8185612534565b935061256a818560208601612028565b61257381612052565b840191505092915050565b612587816120be565b82525050565b600060a08301600083015184820360008601526125aa8282612545565b915050602083015184820360208601526125c48282612545565b915050604083015184820360408601526125de8282612545565b915050606083015184820360608601526125f88282612545565b915050608083015161260d608086018261257e565b508091505092915050565b60006020820190508181036000830152612632818461258d565b905092915050565b61264381611fd6565b811461264e57600080fd5b50565b6000813590506126608161263a565b92915050565b6000806040838503121561267d5761267c611f47565b5b600061268b85828601612194565b925050602061269c85828601612651565b9150509250929050565b600067ffffffffffffffff8211156126c1576126c06122c4565b5b6126ca82612052565b9050602081019050919050565b60006126ea6126e5846126a6565b612324565b905082815260208101848484011115612706576127056122bf565b5b612711848285612370565b509392505050565b600082601f83011261272e5761272d6122ba565b5b813561273e8482602086016126d7565b91505092915050565b6000806000806080858703121561276157612760611f47565b5b600061276f87828801612194565b945050602061278087828801612194565b9350506040612791878288016120df565b925050606085013567ffffffffffffffff8111156127b2576127b1611f4c565b5b6127be87828801612719565b91505092959194509250565b600080604083850312156127e1576127e0611f47565b5b60006127ef85828601612194565b925050602061280085828601612194565b9150509250929050565b7f4e487b7100000000000000000000000000000000000000000000000000000000600052602260045260246000fd5b6000600282049050600182168061285157607f821691505b6020821081036128645761286361280a565b5b50919050565b600060608201905061287f6000830186612153565b61288c60208301856121e9565b6128996040830184612153565b949350505050565b60008190508160005260206000209050919050565b60006020601f8301049050919050565b600082821b905092915050565b6000600883026129037fffffffffffffffffffffffffffffffffffffffffffffffffffffffffffffffff826128c6565b61290d86836128c6565b95508019841693508086168417925050509392505050565b6000819050919050565b600061294a612945612940846120be565b612925565b6120be565b9050919050565b6000819050919050565b6129648361292f565b61297861297082612951565b8484546128d3565b825550505050565b600090565b61298d612980565b61299881848461295b565b505050565b5b818110156129bc576129b1600082612985565b60018101905061299e565b5050565b601f821115612a01576129d2816128a1565b6129db846128b6565b810160208510156129ea578190505b6129fe6129f6856128b6565b83018261299d565b50505b505050565b600082821c905092915050565b6000612a2460001984600802612a06565b1980831691505092915050565b6000612a3d8383612a13565b9150826002028217905092915050565b612a568261200c565b67ffffffffffffffff811115612a6f57612a6e6122c4565b5b612a798254612839565b612a848282856129c0565b600060209050601f831160018114612ab75760008415612aa5578287015190505b612aaf8582612a31565b865550612b17565b601f198416612ac5866128a1565b60005b82811015612aed57848901518255600182019150602085019450602081019050612ac8565b86831015612b0a5784890151612b06601f891682612a13565b8355505b6001600288020188555050505b505050505050565b7f4e487b7100000000000000000000000000000000000000000000000000000000600052601160045260246000fd5b6000612b59826120be565b91507fffffffffffffffffffffffffffffffffffffffffffffffffffffffffffffffff8203612b8b57612b8a612b1f565b5b600182019050919050565b7f546f6b656e20646f6573206e6f74206578697374000000000000000000000000600082015250565b6000612bcc601483612017565b9150612bd782612b96565b602082019050919050565b60006020820190508181036000830152612bfb81612bbf565b9050919050565b600081905092915050565b6000612c188261200c565b612c228185612c02565b9350612c32818560208601612028565b80840191505092915050565b6000612c4a8285612c0d565b9150612c568284612c0d565b91508190509392505050565b600081519050919050565b600082825260208201905092915050565b6000612c8982612c62565b612c938185612c6d565b9350612ca3818560208601612028565b612cac81612052565b840191505092915050565b6000608082019050612ccc6000830187612153565b612cd96020830186612153565b612ce660408301856121e9565b8181036060830152612cf88184612c7e565b905095945050505050565b600081519050612d1281611f7d565b92915050565b600060208284031215612d2e57612d2d611f47565b5b6000612d3c84828501612d03565b91505092915050565b7f4e487b7100000000000000000000000000000000000000000000000000000000600052601260045260246000fd5b6000604082019050612d896000830185612153565b612d9660208301846121e9565b939250505056fea2646970667358221220a325e59f378f12c91e2da4020098e1a9b338defb6e74bd768e5f5a6e15b006c164736f6c63430008140033",
  "linkReferences": {},
  "deployedLinkReferences": {}
}