{
  "_format": "hh-sol-artifact-1",
  "contractName": "MotorbikeNFT",
  "sourceName": "contracts/MotorbikeNFT.sol",
  "abi": [
    {
      "inputs": [],
      "stateMutability": "nonpayable",
      "type": "constructor"
    },
    {
      "inputs": [
        {
          "internalType": "address",
          "name": "sender",
          "type": "address"
        },
        {
          "internalType": "uint256",
          "name": "tokenId",
          "type": "uint256"
        },
        {
          "internalType": "address",
          "name": "owner",
          "type": "address"
        }
      ],
      "name": "ERC721IncorrectOwner",
      "type": "error"
    },
    {
      "inputs": [
        {
          "internalType": "address",
          "name": "operator",
          "type": "address"
        },
        {
          "internalType": "uint256",
          "name": "tokenId",
          "type": "uint256"
        }
      ],
      "name": "ERC721InsufficientApproval",
      "type": "error"
    },
    {
      "inputs": [
        {
          "internalType": "address",
          "name": "approver",
          "type": "address"
        }
      ],
      "name": "ERC721InvalidApprover",
      "type": "error"
    },
    {
      "inputs": [
        {
          "internalType": "address",
          "name": "operator",
          "type": "address"
        }
      ],
      "name": "ERC721InvalidOperator",
      "type": "error"
    },
    {
      "inputs": [
        {
          "internalType": "address",
          "name": "owner",
          "type": "address"
        }
      ],
      "name": "ERC721InvalidOwner",
      "type": "error"
    },
    {
      "inputs": [
        {
          "internalType": "address",
          "name": "receiver",
          "type": "address"
        }
      ],
      "name": "ERC721InvalidReceiver",
      "type": "error"
    },
    {
      "inputs": [
        {
          "internalType": "address",
          "name": "sender",
          "type": "address"
        }
      ],
      "name": "ERC721InvalidSender",
      "type": "error"
    },
    {
      "inputs": [
        {
          "internalType": "uint256",
          "name": "tokenId",
          "type": "uint256"
        }
      ],
      "name": "ERC721NonexistentToken",
      "type": "error"
    },
    {
      "inputs": [
        {
          "internalType": "address",
          "name": "owner",
          "type": "address"
        }
      ],
      "name": "OwnableInvalidOwner",
      "type": "error"
    },
    {
      "inputs": [
        {
          "internalType": "address",
          "name": "account",
          "type": "address"
        }
      ],
      "name": "OwnableUnauthorizedAccount",
      "type": "error"
    },
    {
      "anonymous": false,
      "inputs": [
        {
          "indexed": true,
          "internalType": "address",
          "name": "owner",
          "type": "address"
        },
        {
          "indexed": true,
          "internalType": "address",
          "name": "approved",
          "type": "address"
        },
        {
          "indexed": true,
          "internalType": "uint256",
          "name": "tokenId",
          "type": "uint256"
        }
      ],
      "name": "Approval",
      "type": "event"
    },
    {
      "anonymous": false,
      "inputs": [
        {
          "indexed": true,
          "internalType": "address",
          "name": "owner",
          "type": "address"
        },
        {
          "indexed": true,
          "internalType": "address",
          "name": "operator",
          "type": "address"
        },
        {
          "indexed": false,
          "internalType": "bool",
          "name": "approved",
          "type": "bool"
        }
      ],
      "name": "ApprovalForAll",
      "type": "event"
    },
    {
      "anonymous": false,
      "inputs": [
        {
          "indexed": true,
          "internalType": "uint256",
          "name": "tokenId",
          "type": "uint256"
        },
        {
          "indexed": false,
          "internalType": "string",
          "name": "model",
          "type": "string"
        },
        {
          "indexed": false,
          "internalType": "string",
          "name": "color",
          "type": "string"
        },
        {
          "indexed": false,
          "internalType": "uint256",
          "name": "year",
          "type": "uint256"
        }
      ],
      "name": "MotorbikeUpdated",
      "type": "event"
    },
    {
      "anonymous": false,
      "inputs": [
        {
          "indexed": true,
          "internalType": "address",
          "name": "previousOwner",
          "type": "address"
        },
        {
          "indexed": true,
          "internalType": "address",
          "name": "newOwner",
          "type": "address"
        }
      ],
      "name": "OwnershipTransferred",
      "type": "event"
    },
    {
      "anonymous": false,
      "inputs": [
        {
          "indexed": true,
          "internalType": "uint256",
          "name": "tokenId",
          "type": "uint256"
        },
        {
          "indexed": false,
          "internalType": "bool",
          "name": "locked",
          "type": "bool"
        },
        {
          "indexed": false,
          "internalType": "string",
          "name": "reason",
          "type": "string"
        }
      ],
      "name": "TokenLockSet",
      "type": "event"
    },
    {
      "anonymous": false,
      "inputs": [
        {
          "indexed": true,
          "internalType": "address",
          "name": "from",
          "type": "address"
        },
        {
          "indexed": true,
          "internalType": "address",
          "name": "to",
          "type": "address"
        },
        {
          "indexed": true,
          "internalType": "uint256",
          "name": "tokenId",
          "type": "uint256"
        }
      ],
      "name": "Transfer",
      "type": "event"
    },
    {
      "inputs": [
        {
          "internalType": "address",
          "name": "to",
          "type": "address"
        },
        {
          "internalType": "uint256",
          "name": "tokenId",
          "type": "uint256"
        }
      ],
      "name": "approve",
      "outputs": [],
      "stateMutability": "nonpayable",
      "type": "function"
    },
    {
      "inputs": [
        {
          "internalType": "address",
          "name": "owner",
          "type": "address"
        }
      ],
      "name": "balanceOf",
      "outputs": [
        {
          "internalType": "uint256",
          "name": "",
          "type": "uint256"
        }
      ],
      "stateMutability": "view",
      "type": "function"
    },
    {
      "inputs": [
        {
          "internalType": "bytes32",
          "name": "",
          "type": "bytes32"
        }
      ],
      "name": "engineToTokenId",
      "outputs": [
        {
          "internalType": "uint256",
          "name": "",
          "type": "uint256"
        }
      ],
      "stateMutability": "view",
      "type": "function"
    },
    {
      "inputs": [
        {
          "internalType": "uint256",
          "name": "tokenId",
          "type": "uint256"
        }
      ],
      "name": "getApproved",
      "outputs": [
        {
          "internalType": "address",
          "name": "",
          "type": "address"
        }
      ],
      "stateMutability": "view",
      "type": "function"
    },
    {
      "inputs": [
        {
          "internalType": "uint256",
          "name": "tokenId",
          "type": "uint256"
        }
      ],
      "name": "getMotorbike",
      "outputs": [
        {
          "components": [
            {
              "internalType": "string",
              "name": "vin",
              "type": "string"
            },
            {
              "internalType": "string",
              "name": "engineNumber",
              "type": "string"
            },
            {
              "internalType": "string",
              "name": "model",
              "type": "string"
            },
            {
              "internalType": "string",
              "name": "color",
              "type": "string"
            },
            {
              "internalType": "uint256",
              "name": "year",
              "type": "uint256"
            }
          ],
          "internalType": "struct MotorbikeNFT.Motorbike",
          "name": "",
          "type": "tuple"
        }
      ],
      "stateMutability": "view",
      "type": "function"
    },
    {
      "inputs": [
        {
          "internalType": "address",
          "name": "owner",
          "type": "address"
        },
        {
          "internalType": "address",
          "name": "operator",
          "type": "address"
        }
      ],
      "name": "isApprovedForAll",
      "outputs": [
        {
          "internalType": "bool",
          "name": "",
          "type": "bool"
        }
      ],
      "stateMutability": "view",
      "type": "function"
    },
    {
      "inputs": [
        {
          "internalType": "string",
          "name": "engineNumber",
          "type": "string"
        }
      ],
      "name": "isEngineNumberUsed",
      "outputs": [
        {
          "internalType": "bool",
          "name": "",
          "type": "bool"
        }
      ],
      "stateMutability": "view",
      "type": "function"
    },
    {
      "inputs": [
        {
          "internalType": "string",
          "name": "vin",
          "type": "string"
        }
      ],
      "name": "isVinUsed",
      "outputs": [
        {
          "internalType": "bool",
          "name": "",
          "type": "bool"
        }
      ],
      "stateMutability": "view",
      "type": "function"
    },
    {
      "inputs": [
        {
          "internalType": "uint256",
          "name": "",
          "type": "uint256"
        }
      ],
      "name": "lockReason",
      "outputs": [
        {
          "internalType": "string",
          "name": "",
          "type": "string"
        }
      ],
      "stateMutability": "view",
      "type": "function"
    },
    {
      "inputs": [
        {
          "internalType": "uint256",
          "name": "",
          "type": "uint256"
        }
      ],
      "name": "locked",
      "outputs": [
        {
          "internalType": "bool",
          "name": "",
          "type": "bool"
        }
      ],
      "stateMutability": "view",
      "type": "function"
    },
    {
      "inputs": [
        {
          "internalType": "address",
          "name": "to",
          "type": "address"
        },
        {
          "internalType": "string",
          "name": "vin",
          "type": "string"
        },
        {
          "internalType": "string",
          "name": "engineNumber",
          "type": "string"
        },
        {
          "internalType": "string",
          "name": "model",
          "type": "string"
        },
        {
          "internalType": "string",
          "name": "color",
          "type": "string"
        },
        {
          "internalType": "uint256",
          "name": "year",
          "type": "uint256"
        }
      ],
      "name": "mint",
      "outputs": [],
      "stateMutability": "nonpayable",
      "type": "function"
    },
    {
      "inputs": [
        {
          "internalType": "uint256",
          "name": "",
          "type": "uint256"
        }
      ],
      "name": "motorbikes",
      "outputs": [
        {
          "internalType": "string",
          "name": "vin",
          "type": "string"
        },
        {
          "internalType": "string",
          "name": "engineNumber",
          "type": "string"
        },
        {
          "internalType": "string",
          "name": "model",
          "type": "string"
        },
        {
          "internalType": "string",
          "name": "color",
          "type": "string"
        },
        {
          "internalType": "uint256",
          "name": "year",
          "type": "uint256"
        }
      ],
      "stateMutability": "view",
      "type": "function"
    },
    {
      "inputs": [],
      "name": "name",
      "outputs": [
        {
          "internalType": "string",
          "name": "",
          "type": "string"
        }
      ],
      "stateMutability": "view",
      "type": "function"
    },
    {
      "inputs": [],
      "name": "nextTokenId",
      "outputs": [
        {
          "internalType": "uint256",
          "name": "",
          "type": "uint256"
        }
      ],
      "stateMutability": "view",
      "type": "function"
    },
    {
      "inputs": [],
      "name": "owner",
      "outputs": [
        {
          "internalType": "address",
          "name": "",
          "type": "address"
        }
      ],
      "stateMutability": "view",
      "type": "function"
    },
    {
      "inputs": [
        {
          "internalType": "uint256",
          "name": "tokenId",
          "type": "uint256"
        }
      ],
      "name": "ownerOf",
      "outputs": [
        {
          "internalType": "address",
          "name": "",
          "type": "address"
        }
      ],
      "stateMutability": "view",
      "type": "function"
    },
    {
      "inputs": [],
      "name": "renounceOwnership",
      "outputs": [],
      "stateMutability": "nonpayable",
      "type": "function"
    },
    {
      "inputs": [
        {
          "internalType": "address",
          "name": "from",
          "type": "address"
        },
        {
          "internalType": "address",
          "name": "to",
          "type": "address"
        },
        {
          "internalType": "uint256",
          "name": "tokenId",
          "type": "uint256"
        }
      ],
      "name": "safeTransferFrom",
      "outputs": [],
      "stateMutability": "nonpayable",
      "type": "function"
    },
    {
      "inputs": [
        {
          "internalType": "address",
          "name": "from",
          "type": "address"
        },
        {
          "internalType": "address",
          "name": "to",
          "type": "address"
        },
        {
          "internalType": "uint256",
          "name": "tokenId",
          "type": "uint256"
        },
        {
          "internalType": "bytes",
          "name": "data",
          "type": "bytes"
        }
      ],
      "name": "safeTransferFrom",
      "outputs": [],
      "stateMutability": "nonpayable",
      "type": "function"
    },
    {
      "inputs": [
        {
          "internalType": "address",
          "name": "operator",
          "type": "address"
        },
        {
          "internalType": "bool",
          "name": "approved",
          "type": "bool"
        }
      ],
      "name": "setApprovalForAll",
      "outputs": [],
      "stateMutability": "nonpayable",
      "type": "function"
    },
    {
      "inputs": [
        {
          "internalType": "uint256",
          "name": "tokenId",
          "type": "uint256"
        },
        {
          "internalType": "bool",
          "name": "isLocked",
          "type": "bool"
        },
        {
          "internalType": "string",
          "name": "reason",
          "type": "string"
        }
      ],
      "name": "setTokenLock",
      "outputs": [],
      "stateMutability": "nonpayable",
      "type": "function"
    },
    {
      "inputs": [
        {
          "internalType": "bytes4",
          "name": "interfaceId",
          "type": "bytes4"
        }
      ],
      "name": "supportsInterface",
      "outputs": [
        {
          "internalType": "bool",
          "name": "",
          "type": "bool"
        }
      ],
      "stateMutability": "view",
      "type": "function"
    },
    {
      "inputs": [],
      "name": "symbol",
      "outputs": [
        {
          "internalType": "string",
          "name": "",
          "type": "string"
        }
      ],
      "stateMutability": "view",
      "type": "function"
    },
    {
      "inputs": [
        {
          "internalType": "uint256",
          "name": "tokenId",
          "type": "uint256"
        }
      ],
      "name": "tokenURI",
      "outputs": [
        {
          "internalType": "string",
          "name": "",
          "type": "string"
        }
      ],
      "stateMutability": "view",
      "type": "function"
    },
    {
      "inputs": [],
      "name": "totalSupply",
      "outputs": [
        {
          "internalType": "uint256",
          "name": "",
          "type": "uint256"
        }
      ],
      "stateMutability": "view",
      "type": "function"
    },
    {
      "inputs": [
        {
          "internalType": "address",
          "name": "from",
          "type": "address"
        },
        {
          "internalType": "address",
          "name": "to",
          "type": "address"
        },
        {
          "internalType": "uint256",
          "name": "tokenId",
          "type": "uint256"
        }
      ],
      "name": "transferFrom",
      "outputs": [],
      "stateMutability": "nonpayable",
      "type": "function"
    },
    {
      "inputs": [
        {
          "internalType": "address",
          "name": "newOwner",
          "type": "address"
        }
      ],
      "name": "transferOwnership",
      "outputs": [],
      "stateMutability": "nonpayable",
      "type": "function"
    },
    {
      "inputs": [
        {
          "internalType": "uint256",
          "name": "tokenId",
          "type": "uint256"
        },
        {
          "internalType": "string",
          "name": "model",
          "type": "string"
        },
        {
          "internalType": "string",
          "name": "color",
          "type": "string"
        },
        {
          "internalType": "uint256",
          "name": "year",
          "type": "uint256"
        }
      ],
      "name": "updateMotorbikeDetails",
      "outputs": [],
      "stateMutability": "nonpayable",
      "type": "function"
    },
    {
      "inputs": [
        {
          "internalType": "bytes32",
          "name": "",
          "type": "bytes32"
        }
      ],
      "name": "vinToTokenId",
      "outputs": [
        {
          "internalType": "uint256",
          "name": "",
          "type": "uint256"
        }
      ],
      "stateMutability": "view",
      "type": "function"
    }
  ],
  "bytecode": "0x60806040523480156200001157600080fd5b50336040518060400160405280600c81526020016b135bdd1bdc989a5ad953919560a21b81525060405180604001604052806005815260200164135093919560da1b8152508160009081620000679190620001b1565b506001620000768282620001b1565b5050506001600160a01b038116620000a857604051631e4fbdf760e01b81526000600482015260240160405180910390fd5b620000b381620000ba565b506200027d565b600680546001600160a01b038381166001600160a01b0319831681179093556040519116919082907f8be0079c531659141344cd1fd0a4f28419497f9722a3daafe3b4186f6b6457e090600090a35050565b634e487b7160e01b600052604160045260246000fd5b600181811c908216806200013757607f821691505b6020821081036200015857634e487b7160e01b600052602260045260246000fd5b50919050565b601f821115620001ac57600081815260208120601f850160051c81016020861015620001875750805b601f850160051c820191505b81811015620001a85782815560010162000193565b5050505b505050565b81516001600160401b03811115620001cd57620001cd6200010c565b620001e581620001de845462000122565b846200015e565b602080601f8311600181146200021d5760008415620002045750858301515b600019600386901b1c1916600185901b178555620001a8565b600085815260208120601f198616915b828110156200024e578886015182559484019460019091019084016200022d565b50858210156200026d5787850151600019600388901b60f8161c191681555b5050505050600190811b01905550565b612304806200028d6000396000f3fe608060405234801561001057600080fd5b50600436106101cf5760003560e01c806375794a3c11610104578063ad59eff3116100a2578063c87b56dd11610071578063c87b56dd14610405578063deb1aeaa14610418578063e985e9c51461042b578063f2fde38b1461043e57600080fd5b8063ad59eff31461039c578063b45a3c0e146103bc578063b88d4fde146103df578063baf28387146103f257600080fd5b806395d89b41116100de57806395d89b41146103415780639b58c63614610349578063a09b5c1314610369578063a22cb4651461038957600080fd5b806375794a3c14610314578063777b49581461031d5780638da5cb5b1461033057600080fd5b806323b872dd1161017157806362f46d151161014b57806362f46d15146102d35780636352211e146102e657806370a08231146102f9578063715018a61461030c57600080fd5b806323b872dd1461029a57806339a5e9f6146102ad57806342842e0e146102c057600080fd5b8063095ea7b3116101ad578063095ea7b31461023c578063149c9db01461025157806318160ddd146102755780631efc2dd71461028757600080fd5b806301ffc9a7146101d457806306fdde03146101fc578063081812fc14610211575b600080fd5b6101e76101e236600461197e565b610451565b60405190151581526020015b60405180910390f35b6102046104a3565b6040516101f391906119eb565b61022461021f3660046119fe565b610535565b6040516001600160a01b0390911681526020016101f3565b61024f61024a366004611a33565b61055e565b005b61026461025f3660046119fe565b61056d565b6040516101f3959493929190611a5d565b600c545b6040519081526020016101f3565b6101e7610295366004611b69565b6107bb565b61024f6102a8366004611b9e565b610801565b61024f6102bb366004611c23565b610891565b61024f6102ce366004611b9e565b61094d565b61024f6102e1366004611ca5565b61096d565b6102246102f43660046119fe565b610b8d565b610279610307366004611d6b565b610b98565b61024f610be0565b610279600c5481565b61024f61032b366004611d96565b610bf4565b6006546001600160a01b0316610224565b610204610cdd565b6102796103573660046119fe565b600b6020526000908152604090205481565b61037c6103773660046119fe565b610cec565b6040516101f39190611df0565b61024f610397366004611e7c565b610fc0565b6102796103aa3660046119fe565b600a6020526000908152604090205481565b6101e76103ca3660046119fe565b600d6020526000908152604090205460ff1681565b61024f6103ed366004611eaf565b610fcb565b6102046104003660046119fe565b610fe3565b6102046104133660046119fe565b61107d565b6101e7610426366004611b69565b6110f2565b6101e7610439366004611f2b565b611109565b61024f61044c366004611d6b565b611137565b60006001600160e01b031982166380ac58cd60e01b148061048257506001600160e01b03198216635b5e139f60e01b145b8061049d57506301ffc9a760e01b6001600160e01b03198316145b92915050565b6060600080546104b290611f55565b80601f01602080910402602001604051908101604052809291908181526020018280546104de90611f55565b801561052b5780601f106105005761010080835404028352916020019161052b565b820191906000526020600020905b81548152906001019060200180831161050e57829003601f168201915b5050505050905090565b600061054082611175565b506000828152600460205260409020546001600160a01b031661049d565b6105698282336111ae565b5050565b60076020526000908152604090208054819061058890611f55565b80601f01602080910402602001604051908101604052809291908181526020018280546105b490611f55565b80156106015780601f106105d657610100808354040283529160200191610601565b820191906000526020600020905b8154815290600101906020018083116105e457829003601f168201915b50505050509080600101805461061690611f55565b80601f016020809104026020016040519081016040528092919081815260200182805461064290611f55565b801561068f5780601f106106645761010080835404028352916020019161068f565b820191906000526020600020905b81548152906001019060200180831161067257829003601f168201915b5050505050908060020180546106a490611f55565b80601f01602080910402602001604051908101604052809291908181526020018280546106d090611f55565b801561071d5780601f106106f25761010080835404028352916020019161071d565b820191906000526020600020905b81548152906001019060200180831161070057829003601f168201915b50505050509080600301805461073290611f55565b80601f016020809104026020016040519081016040528092919081815260200182805461075e90611f55565b80156107ab5780601f10610780576101008083540402835291602001916107ab565b820191906000526020600020905b81548152906001019060200180831161078e57829003601f168201915b5050505050908060040154905085565b600060086000836040516020016107d29190611f8f565b60408051601f198184030181529181528151602092830120835290820192909252016000205460ff1692915050565b6001600160a01b03821661083057604051633250574960e11b8152600060048201526024015b60405180910390fd5b600061083d8383336111bb565b9050836001600160a01b0316816001600160a01b03161461088b576040516364283d7b60e01b81526001600160a01b0380861660048301526024820184905282166044820152606401610827565b50505050565b610899611254565b6000868152600260205260409020546001600160a01b03166108cd5760405162461bcd60e51b815260040161082790611fab565b6000868152600760205260409020600281016108ea86888361201f565b50600381016108fa84868361201f565b50818160040181905550867f989cb7f586f7dc4784a41ffd618ef7d6f4ddfc1d4e7664e33da17cd6a0b15196878787878760405161093c959493929190612108565b60405180910390a250505050505050565b61096883838360405180602001604052806000815250610fcb565b505050565b610975611254565b6000856040516020016109889190611f8f565b6040516020818303038152906040528051906020012090506000856040516020016109b39190611f8f565b60408051601f1981840301815291815281516020928301206000858152600890935291205490915060ff1615610a205760405162461bcd60e51b815260206004820152601260248201527156494e20616c72656164792065786973747360701b6044820152606401610827565b60008181526009602052604090205460ff1615610a7f5760405162461bcd60e51b815260206004820152601c60248201527f456e67696e65206e756d62657220616c726561647920657869737473000000006044820152606401610827565b6040805160a08101825288815260208082018990528183018890526060820187905260808201869052600c54600090815260079091529190912081518190610ac79082612142565b5060208201516001820190610adc9082612142565b5060408201516002820190610af19082612142565b5060608201516003820190610b069082612142565b5060808201518160040155905050610b2088600c54611281565b60008281526008602090815260408083208054600160ff1991821681179092558585526009845282852080549091169091179055600c8054868552600a8452828520819055858552600b9093529083208290559091610b7e83612202565b91905055505050505050505050565b600061049d82611175565b60006001600160a01b038216610bc4576040516322718ad960e21b815260006004820152602401610827565b506001600160a01b031660009081526003602052604090205490565b610be8611254565b610bf2600061129b565b565b610bfc611254565b6000848152600260205260409020546001600160a01b0316610c305760405162461bcd60e51b815260040161082790611fab565b6000848152600d60205260409020805460ff19168415801591909117909155610c72576000848152600e60205260409020610c6c82848361201f565b50610c9b565b60408051602080820183526000808352878152600e9091529190912090610c999082612142565b505b837f91a9912fed89bd30033aa30be97f0493ac57d6c28b76a01c210eb37278420bf7848484604051610ccf93929190612229565b60405180910390a250505050565b6060600180546104b290611f55565b610d1e6040518060a0016040528060608152602001606081526020016060815260200160608152602001600081525090565b6000610d2983610b8d565b6001600160a01b031603610d4f5760405162461bcd60e51b815260040161082790611fab565b60008281526007602052604090819020815160a08101909252805482908290610d7790611f55565b80601f0160208091040260200160405190810160405280929190818152602001828054610da390611f55565b8015610df05780601f10610dc557610100808354040283529160200191610df0565b820191906000526020600020905b815481529060010190602001808311610dd357829003601f168201915b50505050508152602001600182018054610e0990611f55565b80601f0160208091040260200160405190810160405280929190818152602001828054610e3590611f55565b8015610e825780601f10610e5757610100808354040283529160200191610e82565b820191906000526020600020905b815481529060010190602001808311610e6557829003601f168201915b50505050508152602001600282018054610e9b90611f55565b80601f0160208091040260200160405190810160405280929190818152602001828054610ec790611f55565b8015610f145780601f10610ee957610100808354040283529160200191610f14565b820191906000526020600020905b815481529060010190602001808311610ef757829003601f168201915b50505050508152602001600382018054610f2d90611f55565b80601f0160208091040260200160405190810160405280929190818152602001828054610f5990611f55565b8015610fa65780601f10610f7b57610100808354040283529160200191610fa6565b820191906000526020600020905b815481529060010190602001808311610f8957829003601f168201915b505050505081526020016004820154815250509050919050565b6105693383836112ed565b610fd6848484610801565b61088b338585858561138c565b600e6020526000908152604090208054610ffc90611f55565b80601f016020809104026020016040519081016040528092919081815260200182805461102890611f55565b80156110755780601f1061104a57610100808354040283529160200191611075565b820191906000526020600020905b81548152906001019060200180831161105857829003601f168201915b505050505081565b606061108882611175565b5060006110a060408051602081019091526000815290565b905060008151116110c057604051806020016040528060008152506110eb565b806110ca846114b7565b6040516020016110db929190612245565b6040516020818303038152906040525b9392505050565b600060096000836040516020016107d29190611f8f565b6001600160a01b03918216600090815260056020908152604080832093909416825291909152205460ff1690565b61113f611254565b6001600160a01b03811661116957604051631e4fbdf760e01b815260006004820152602401610827565b6111728161129b565b50565b6000818152600260205260408120546001600160a01b03168061049d57604051637e27328960e01b815260048101849052602401610827565b610968838383600161154a565b6000828152600260205260408120546001600160a01b031680158015906111ea57506001600160a01b03851615155b15611240576000848152600d602052604090205460ff16156112405760405162461bcd60e51b815260206004820152600f60248201526e151bdad95b881a5cc81b1bd8dad959608a1b6044820152606401610827565b61124b858585611650565b95945050505050565b6006546001600160a01b03163314610bf25760405163118cdaa760e01b8152336004820152602401610827565b610569828260405180602001604052806000815250611749565b600680546001600160a01b038381166001600160a01b0319831681179093556040519116919082907f8be0079c531659141344cd1fd0a4f28419497f9722a3daafe3b4186f6b6457e090600090a35050565b6001600160a01b03821661131f57604051630b61174360e31b81526001600160a01b0383166004820152602401610827565b6001600160a01b03838116600081815260056020908152604080832094871680845294825291829020805460ff191686151590811790915591519182527f17307eab39ab6107e8899845ad3d59bd9653f200f220920489ca2b5937696c31910160405180910390a3505050565b6001600160a01b0383163b156114b057604051630a85bd0160e11b81526001600160a01b0384169063150b7a02906113ce908890889087908790600401612274565b6020604051808303816000875af1925050508015611409575060408051601f3d908101601f19168201909252611406918101906122b1565b60015b611472573d808015611437576040519150601f19603f3d011682016040523d82523d6000602084013e61143c565b606091505b50805160000361146a57604051633250574960e11b81526001600160a01b0385166004820152602401610827565b805160208201fd5b6001600160e01b03198116630a85bd0160e11b146114ae57604051633250574960e11b81526001600160a01b0385166004820152602401610827565b505b5050505050565b606060006114c483611761565b600101905060008167ffffffffffffffff8111156114e4576114e4611abd565b6040519080825280601f01601f19166020018201604052801561150e576020820181803683370190505b5090508181016020015b600019016f181899199a1a9b1b9c1cb0b131b232b360811b600a86061a8153600a850494508461151857509392505050565b808061155e57506001600160a01b03821615155b1561162057600061156e84611175565b90506001600160a01b0383161580159061159a5750826001600160a01b0316816001600160a01b031614155b80156115ad57506115ab8184611109565b155b156115d65760405163a9fbf51f60e01b81526001600160a01b0384166004820152602401610827565b811561161e5783856001600160a01b0316826001600160a01b03167f8c5be1e5ebec7d5bd14f71427d1e84f3dd0314c0f7b2291e5b200ac8c7c3b92560405160405180910390a45b505b5050600090815260046020526040902080546001600160a01b0319166001600160a01b0392909216919091179055565b6000828152600260205260408120546001600160a01b039081169083161561167d5761167d818486611839565b6001600160a01b038116156116bb5761169a60008560008061154a565b6001600160a01b038116600090815260036020526040902080546000190190555b6001600160a01b038516156116ea576001600160a01b0385166000908152600360205260409020805460010190555b60008481526002602052604080822080546001600160a01b0319166001600160a01b0389811691821790925591518793918516917fddf252ad1be2c89b69c2b068fc378daa952ba7f163c4a11628f55a4df523b3ef91a4949350505050565b611753838361189d565b61096833600085858561138c565b60008072184f03e93ff9f4daa797ed6e38ed64bf6a1f0160401b83106117a05772184f03e93ff9f4daa797ed6e38ed64bf6a1f0160401b830492506040015b6d04ee2d6d415b85acef810000000083106117cc576d04ee2d6d415b85acef8100000000830492506020015b662386f26fc1000083106117ea57662386f26fc10000830492506010015b6305f5e1008310611802576305f5e100830492506008015b612710831061181657612710830492506004015b60648310611828576064830492506002015b600a831061049d5760010192915050565b611844838383611902565b610968576001600160a01b03831661187257604051637e27328960e01b815260048101829052602401610827565b60405163177e802f60e01b81526001600160a01b038316600482015260248101829052604401610827565b6001600160a01b0382166118c757604051633250574960e11b815260006004820152602401610827565b60006118d5838360006111bb565b90506001600160a01b03811615610968576040516339e3563760e11b815260006004820152602401610827565b60006001600160a01b038316158015906119605750826001600160a01b0316846001600160a01b0316148061193c575061193c8484611109565b8061196057506000828152600460205260409020546001600160a01b038481169116145b949350505050565b6001600160e01b03198116811461117257600080fd5b60006020828403121561199057600080fd5b81356110eb81611968565b60005b838110156119b657818101518382015260200161199e565b50506000910152565b600081518084526119d781602086016020860161199b565b601f01601f19169290920160200192915050565b6020815260006110eb60208301846119bf565b600060208284031215611a1057600080fd5b5035919050565b80356001600160a01b0381168114611a2e57600080fd5b919050565b60008060408385031215611a4657600080fd5b611a4f83611a17565b946020939093013593505050565b60a081526000611a7060a08301886119bf565b8281036020840152611a8281886119bf565b90508281036040840152611a9681876119bf565b90508281036060840152611aaa81866119bf565b9150508260808301529695505050505050565b634e487b7160e01b600052604160045260246000fd5b600067ffffffffffffffff80841115611aee57611aee611abd565b604051601f8501601f19908116603f01168101908282118183101715611b1657611b16611abd565b81604052809350858152868686011115611b2f57600080fd5b858560208301376000602087830101525050509392505050565b600082601f830112611b5a57600080fd5b6110eb83833560208501611ad3565b600060208284031215611b7b57600080fd5b813567ffffffffffffffff811115611b9257600080fd5b61196084828501611b49565b600080600060608486031215611bb357600080fd5b611bbc84611a17565b9250611bca60208501611a17565b9150604084013590509250925092565b60008083601f840112611bec57600080fd5b50813567ffffffffffffffff811115611c0457600080fd5b602083019150836020828501011115611c1c57600080fd5b9250929050565b60008060008060008060808789031215611c3c57600080fd5b86359550602087013567ffffffffffffffff80821115611c5b57600080fd5b611c678a838b01611bda565b90975095506040890135915080821115611c8057600080fd5b50611c8d89828a01611bda565b979a9699509497949695606090950135949350505050565b60008060008060008060c08789031215611cbe57600080fd5b611cc787611a17565b9550602087013567ffffffffffffffff80821115611ce457600080fd5b611cf08a838b01611b49565b96506040890135915080821115611d0657600080fd5b611d128a838b01611b49565b95506060890135915080821115611d2857600080fd5b611d348a838b01611b49565b94506080890135915080821115611d4a57600080fd5b50611d5789828a01611b49565b92505060a087013590509295509295509295565b600060208284031215611d7d57600080fd5b6110eb82611a17565b80358015158114611a2e57600080fd5b60008060008060608587031215611dac57600080fd5b84359350611dbc60208601611d86565b9250604085013567ffffffffffffffff811115611dd857600080fd5b611de487828801611bda565b95989497509550505050565b602081526000825160a06020840152611e0c60c08401826119bf565b90506020840151601f1980858403016040860152611e2a83836119bf565b92506040860151915080858403016060860152611e4783836119bf565b9250606086015191508085840301608086015250611e6582826119bf565b915050608084015160a08401528091505092915050565b60008060408385031215611e8f57600080fd5b611e9883611a17565b9150611ea660208401611d86565b90509250929050565b60008060008060808587031215611ec557600080fd5b611ece85611a17565b9350611edc60208601611a17565b925060408501359150606085013567ffffffffffffffff811115611eff57600080fd5b8501601f81018713611f1057600080fd5b611f1f87823560208401611ad3565b91505092959194509250565b60008060408385031215611f3e57600080fd5b611f4783611a17565b9150611ea660208401611a17565b600181811c90821680611f6957607f821691505b602082108103611f8957634e487b7160e01b600052602260045260246000fd5b50919050565b60008251611fa181846020870161199b565b9190910192915050565b602080825260149082015273151bdad95b88191bd95cc81b9bdd08195e1a5cdd60621b604082015260600190565b601f82111561096857600081815260208120601f850160051c810160208610156120005750805b601f850160051c820191505b818110156114ae5782815560010161200c565b67ffffffffffffffff83111561203757612037611abd565b61204b836120458354611f55565b83611fd9565b6000601f84116001811461207f57600085156120675750838201355b600019600387901b1c1916600186901b1783556114b0565b600083815260209020601f19861690835b828110156120b05786850135825560209485019460019092019101612090565b50868210156120cd5760001960f88860031b161c19848701351681555b505060018560011b0183555050505050565b81835281816020850137506000828201602090810191909152601f909101601f19169091010190565b60608152600061211c6060830187896120df565b828103602084015261212f8186886120df565b9150508260408301529695505050505050565b815167ffffffffffffffff81111561215c5761215c611abd565b6121708161216a8454611f55565b84611fd9565b602080601f8311600181146121a5576000841561218d5750858301515b600019600386901b1c1916600185901b1785556114ae565b600085815260208120601f198616915b828110156121d4578886015182559484019460019091019084016121b5565b50858210156121f25787850151600019600388901b60f8161c191681555b5050505050600190811b01905550565b60006001820161222257634e487b7160e01b600052601160045260246000fd5b5060010190565b831515815260406020820152600061124b6040830184866120df565b6000835161225781846020880161199b565b83519083019061226b81836020880161199b565b01949350505050565b6001600160a01b03858116825284166020820152604081018390526080606082018190526000906122a7908301846119bf565b9695505050505050565b6000602082840312156122c357600080fd5b81516110eb8161196856fea2646970667358221220931515fa603d8003cc0fe3e19c2924c447a3867860c0dc8b4436c19832426e0a64736f6c63430008140033",
  "linkReferences": {},
  "deployedLinkReferences": {}
}